{
  "address": "0x0165878A594ca255338adfa4d48449f69242Eb8F",
  "abi": [
    {
      "inputs": [
        {
          "internalType": "string",
          "name": "_name",
          "type": "string"
        },
        {
          "internalType": "string",
          "name": "_symbol",
          "type": "string"
        },
        {
          "internalType": "string",
          "name": "_tokenUri",
          "type": "string"
        }
      ],
      "stateMutability": "nonpayable",
      "type": "constructor"
    },
    {
      "anonymous": false,
      "inputs": [
        {
          "indexed": true,
          "internalType": "address",
          "name": "owner",
          "type": "address"
        },
        {
          "indexed": true,
          "internalType": "address",
          "name": "approved",
          "type": "address"
        },
        {
          "indexed": true,
          "internalType": "uint256",
          "name": "tokenId",
          "type": "uint256"
        }
      ],
      "name": "Approval",
      "type": "event"
    },
    {
      "anonymous": false,
      "inputs": [
        {
          "indexed": true,
          "internalType": "address",
          "name": "owner",
          "type": "address"
        },
        {
          "indexed": true,
          "internalType": "address",
          "name": "operator",
          "type": "address"
        },
        {
          "indexed": false,
          "internalType": "bool",
          "name": "approved",
          "type": "bool"
        }
      ],
      "name": "ApprovalForAll",
      "type": "event"
    },
    {
      "anonymous": false,
      "inputs": [
        {
          "indexed": true,
          "internalType": "address",
          "name": "previousOwner",
          "type": "address"
        },
        {
          "indexed": true,
          "internalType": "address",
          "name": "newOwner",
          "type": "address"
        }
      ],
      "name": "OwnershipTransferred",
      "type": "event"
    },
    {
      "anonymous": false,
      "inputs": [
        {
          "indexed": true,
          "internalType": "address",
          "name": "from",
          "type": "address"
        },
        {
          "indexed": true,
          "internalType": "address",
          "name": "to",
          "type": "address"
        },
        {
          "indexed": true,
          "internalType": "uint256",
          "name": "tokenId",
          "type": "uint256"
        }
      ],
      "name": "Transfer",
      "type": "event"
    },
    {
      "inputs": [
        {
          "internalType": "address",
          "name": "to",
          "type": "address"
        },
        {
          "internalType": "uint256",
          "name": "tokenId",
          "type": "uint256"
        }
      ],
      "name": "approve",
      "outputs": [],
      "stateMutability": "nonpayable",
      "type": "function"
    },
    {
      "inputs": [
        {
          "internalType": "address",
          "name": "owner",
          "type": "address"
        }
      ],
      "name": "balanceOf",
      "outputs": [
        {
          "internalType": "uint256",
          "name": "",
          "type": "uint256"
        }
      ],
      "stateMutability": "view",
      "type": "function"
    },
    {
      "inputs": [
        {
          "internalType": "string",
          "name": "newTokenUri",
          "type": "string"
        }
      ],
      "name": "changeTokenUri",
      "outputs": [],
      "stateMutability": "nonpayable",
      "type": "function"
    },
    {
      "inputs": [
        {
          "internalType": "uint256",
          "name": "tokenId",
          "type": "uint256"
        }
      ],
      "name": "getApproved",
      "outputs": [
        {
          "internalType": "address",
          "name": "",
          "type": "address"
        }
      ],
      "stateMutability": "view",
      "type": "function"
    },
    {
      "inputs": [
        {
          "internalType": "address",
          "name": "owner",
          "type": "address"
        },
        {
          "internalType": "address",
          "name": "operator",
          "type": "address"
        }
      ],
      "name": "isApprovedForAll",
      "outputs": [
        {
          "internalType": "bool",
          "name": "",
          "type": "bool"
        }
      ],
      "stateMutability": "view",
      "type": "function"
    },
    {
      "inputs": [],
      "name": "mintNft",
      "outputs": [
        {
          "internalType": "uint256",
          "name": "",
          "type": "uint256"
        }
      ],
      "stateMutability": "nonpayable",
      "type": "function"
    },
    {
      "inputs": [],
      "name": "name",
      "outputs": [
        {
          "internalType": "string",
          "name": "",
          "type": "string"
        }
      ],
      "stateMutability": "view",
      "type": "function"
    },
    {
      "inputs": [],
      "name": "owner",
      "outputs": [
        {
          "internalType": "address",
          "name": "",
          "type": "address"
        }
      ],
      "stateMutability": "view",
      "type": "function"
    },
    {
      "inputs": [
        {
          "internalType": "uint256",
          "name": "tokenId",
          "type": "uint256"
        }
      ],
      "name": "ownerOf",
      "outputs": [
        {
          "internalType": "address",
          "name": "",
          "type": "address"
        }
      ],
      "stateMutability": "view",
      "type": "function"
    },
    {
      "inputs": [],
      "name": "renounceOwnership",
      "outputs": [],
      "stateMutability": "nonpayable",
      "type": "function"
    },
    {
      "inputs": [],
      "name": "s_tokenCounter",
      "outputs": [
        {
          "internalType": "uint256",
          "name": "",
          "type": "uint256"
        }
      ],
      "stateMutability": "view",
      "type": "function"
    },
    {
      "inputs": [
        {
          "internalType": "address",
          "name": "from",
          "type": "address"
        },
        {
          "internalType": "address",
          "name": "to",
          "type": "address"
        },
        {
          "internalType": "uint256",
          "name": "tokenId",
          "type": "uint256"
        }
      ],
      "name": "safeTransferFrom",
      "outputs": [],
      "stateMutability": "nonpayable",
      "type": "function"
    },
    {
      "inputs": [
        {
          "internalType": "address",
          "name": "from",
          "type": "address"
        },
        {
          "internalType": "address",
          "name": "to",
          "type": "address"
        },
        {
          "internalType": "uint256",
          "name": "tokenId",
          "type": "uint256"
        },
        {
          "internalType": "bytes",
          "name": "data",
          "type": "bytes"
        }
      ],
      "name": "safeTransferFrom",
      "outputs": [],
      "stateMutability": "nonpayable",
      "type": "function"
    },
    {
      "inputs": [
        {
          "internalType": "address",
          "name": "operator",
          "type": "address"
        },
        {
          "internalType": "bool",
          "name": "approved",
          "type": "bool"
        }
      ],
      "name": "setApprovalForAll",
      "outputs": [],
      "stateMutability": "nonpayable",
      "type": "function"
    },
    {
      "inputs": [
        {
          "internalType": "bytes4",
          "name": "interfaceId",
          "type": "bytes4"
        }
      ],
      "name": "supportsInterface",
      "outputs": [
        {
          "internalType": "bool",
          "name": "",
          "type": "bool"
        }
      ],
      "stateMutability": "view",
      "type": "function"
    },
    {
      "inputs": [],
      "name": "symbol",
      "outputs": [
        {
          "internalType": "string",
          "name": "",
          "type": "string"
        }
      ],
      "stateMutability": "view",
      "type": "function"
    },
    {
      "inputs": [
        {
          "internalType": "uint256",
          "name": "tokenId",
          "type": "uint256"
        }
      ],
      "name": "tokenURI",
      "outputs": [
        {
          "internalType": "string",
          "name": "",
          "type": "string"
        }
      ],
      "stateMutability": "view",
      "type": "function"
    },
    {
      "inputs": [],
      "name": "tokenUri",
      "outputs": [
        {
          "internalType": "string",
          "name": "",
          "type": "string"
        }
      ],
      "stateMutability": "view",
      "type": "function"
    },
    {
      "inputs": [
        {
          "internalType": "address",
          "name": "from",
          "type": "address"
        },
        {
          "internalType": "address",
          "name": "to",
          "type": "address"
        },
        {
          "internalType": "uint256",
          "name": "tokenId",
          "type": "uint256"
        }
      ],
      "name": "transferFrom",
      "outputs": [],
      "stateMutability": "nonpayable",
      "type": "function"
    },
    {
      "inputs": [
        {
          "internalType": "address",
          "name": "newOwner",
          "type": "address"
        }
      ],
      "name": "transferOwnership",
      "outputs": [],
      "stateMutability": "nonpayable",
      "type": "function"
    }
  ],
  "transactionHash": "0x089757ec9569f5bef9eaf15850c0b3386d91a819b91765f0e4c5a90a15327fdb",
  "args": [
    "GovernanceNFt",
    "GNFt",
    "snkdsjvsnfksnkhdvikdf"
  ],
  "numDeployments": 1,
  "solcInputHash": "278cda2700123a14763fa3aa2e3e4327",
  "bytecode": "0x60806040523480156200001157600080fd5b5060405162003448380380620034488339818101604052810190620000379190620002fb565b828281600090816200004a9190620005ff565b5080600190816200005c9190620005ff565b5050506200007f620000736200009a60201b60201c565b620000a260201b60201c565b8060079081620000909190620005ff565b50505050620006e6565b600033905090565b6000600660009054906101000a900473ffffffffffffffffffffffffffffffffffffffff16905081600660006101000a81548173ffffffffffffffffffffffffffffffffffffffff021916908373ffffffffffffffffffffffffffffffffffffffff1602179055508173ffffffffffffffffffffffffffffffffffffffff168173ffffffffffffffffffffffffffffffffffffffff167f8be0079c531659141344cd1fd0a4f28419497f9722a3daafe3b4186f6b6457e060405160405180910390a35050565b6000604051905090565b600080fd5b600080fd5b600080fd5b600080fd5b6000601f19601f8301169050919050565b7f4e487b7100000000000000000000000000000000000000000000000000000000600052604160045260246000fd5b620001d18262000186565b810181811067ffffffffffffffff82111715620001f357620001f262000197565b5b80604052505050565b60006200020862000168565b9050620002168282620001c6565b919050565b600067ffffffffffffffff82111562000239576200023862000197565b5b620002448262000186565b9050602081019050919050565b60005b838110156200027157808201518184015260208101905062000254565b60008484015250505050565b6000620002946200028e846200021b565b620001fc565b905082815260208101848484011115620002b357620002b262000181565b5b620002c084828562000251565b509392505050565b600082601f830112620002e057620002df6200017c565b5b8151620002f28482602086016200027d565b91505092915050565b60008060006060848603121562000317576200031662000172565b5b600084015167ffffffffffffffff81111562000338576200033762000177565b5b6200034686828701620002c8565b935050602084015167ffffffffffffffff8111156200036a576200036962000177565b5b6200037886828701620002c8565b925050604084015167ffffffffffffffff8111156200039c576200039b62000177565b5b620003aa86828701620002c8565b9150509250925092565b600081519050919050565b7f4e487b7100000000000000000000000000000000000000000000000000000000600052602260045260246000fd5b600060028204905060018216806200040757607f821691505b6020821081036200041d576200041c620003bf565b5b50919050565b60008190508160005260206000209050919050565b60006020601f8301049050919050565b600082821b905092915050565b600060088302620004877fffffffffffffffffffffffffffffffffffffffffffffffffffffffffffffffff8262000448565b62000493868362000448565b95508019841693508086168417925050509392505050565b6000819050919050565b6000819050919050565b6000620004e0620004da620004d484620004ab565b620004b5565b620004ab565b9050919050565b6000819050919050565b620004fc83620004bf565b620005146200050b82620004e7565b84845462000455565b825550505050565b600090565b6200052b6200051c565b62000538818484620004f1565b505050565b5b8181101562000560576200055460008262000521565b6001810190506200053e565b5050565b601f821115620005af57620005798162000423565b620005848462000438565b8101602085101562000594578190505b620005ac620005a38562000438565b8301826200053d565b50505b505050565b600082821c905092915050565b6000620005d460001984600802620005b4565b1980831691505092915050565b6000620005ef8383620005c1565b9150826002028217905092915050565b6200060a82620003b4565b67ffffffffffffffff81111562000626576200062562000197565b5b620006328254620003ee565b6200063f82828562000564565b600060209050601f83116001811462000677576000841562000662578287015190505b6200066e8582620005e1565b865550620006de565b601f198416620006878662000423565b60005b82811015620006b1578489015182556001820191506020850194506020810190506200068a565b86831015620006d15784890151620006cd601f891682620005c1565b8355505b6001600288020188555050505b505050505050565b612d5280620006f66000396000f3fe608060405234801561001057600080fd5b506004361061012c5760003560e01c8063715018a6116100ad578063b88d4fde11610071578063b88d4fde1461031d578063c2229fea14610339578063c87b56dd14610357578063e985e9c514610387578063f2fde38b146103b75761012c565b8063715018a61461029f5780638da5cb5b146102a957806395d89b41146102c7578063a20e08ca146102e5578063a22cb465146103015761012c565b806323b872dd116100f457806323b872dd146101e9578063355e0c5d1461020557806342842e0e146102235780636352211e1461023f57806370a082311461026f5761012c565b806301ffc9a71461013157806306fdde0314610161578063081812fc1461017f578063095ea7b3146101af5780630b21a83b146101cb575b600080fd5b61014b60048036038101906101469190611b85565b6103d3565b6040516101589190611bcd565b60405180910390f35b6101696104b5565b6040516101769190611c78565b60405180910390f35b61019960048036038101906101949190611cd0565b610547565b6040516101a69190611d3e565b60405180910390f35b6101c960048036038101906101c49190611d85565b61058d565b005b6101d36106a4565b6040516101e09190611dd4565b60405180910390f35b61020360048036038101906101fe9190611def565b6106aa565b005b61020d61070a565b60405161021a9190611c78565b60405180910390f35b61023d60048036038101906102389190611def565b610798565b005b61025960048036038101906102549190611cd0565b6107b8565b6040516102669190611d3e565b60405180910390f35b61028960048036038101906102849190611e42565b61083e565b6040516102969190611dd4565b60405180910390f35b6102a76108f5565b005b6102b1610909565b6040516102be9190611d3e565b60405180910390f35b6102cf610933565b6040516102dc9190611c78565b60405180910390f35b6102ff60048036038101906102fa9190611fa4565b6109c5565b005b61031b60048036038101906103169190612019565b6109e0565b005b610337600480360381019061033291906120fa565b6109f6565b005b610341610a58565b60405161034e9190611dd4565b60405180910390f35b610371600480360381019061036c9190611cd0565b610a88565b60405161037e9190611c78565b60405180910390f35b6103a1600480360381019061039c919061217d565b610af0565b6040516103ae9190611bcd565b60405180910390f35b6103d160048036038101906103cc9190611e42565b610b84565b005b60007f80ac58cd000000000000000000000000000000000000000000000000000000007bffffffffffffffffffffffffffffffffffffffffffffffffffffffff1916827bffffffffffffffffffffffffffffffffffffffffffffffffffffffff1916148061049e57507f5b5e139f000000000000000000000000000000000000000000000000000000007bffffffffffffffffffffffffffffffffffffffffffffffffffffffff1916827bffffffffffffffffffffffffffffffffffffffffffffffffffffffff1916145b806104ae57506104ad82610c07565b5b9050919050565b6060600080546104c4906121ec565b80601f01602080910402602001604051908101604052809291908181526020018280546104f0906121ec565b801561053d5780601f106105125761010080835404028352916020019161053d565b820191906000526020600020905b81548152906001019060200180831161052057829003601f168201915b5050505050905090565b600061055282610c71565b6004600083815260200190815260200160002060009054906101000a900473ffffffffffffffffffffffffffffffffffffffff169050919050565b6000610598826107b8565b90508073ffffffffffffffffffffffffffffffffffffffff168373ffffffffffffffffffffffffffffffffffffffff1603610608576040517f08c379a00000000000000000000000000000000000000000000000000000000081526004016105ff9061228f565b60405180910390fd5b8073ffffffffffffffffffffffffffffffffffffffff16610627610cbc565b73ffffffffffffffffffffffffffffffffffffffff161480610656575061065581610650610cbc565b610af0565b5b610695576040517f08c379a000000000000000000000000000000000000000000000000000000000815260040161068c90612321565b60405180910390fd5b61069f8383610cc4565b505050565b60085481565b6106bb6106b5610cbc565b82610d7d565b6106fa576040517f08c379a00000000000000000000000000000000000000000000000000000000081526004016106f1906123b3565b60405180910390fd5b610705838383610e12565b505050565b60078054610717906121ec565b80601f0160208091040260200160405190810160405280929190818152602001828054610743906121ec565b80156107905780601f1061076557610100808354040283529160200191610790565b820191906000526020600020905b81548152906001019060200180831161077357829003601f168201915b505050505081565b6107b3838383604051806020016040528060008152506109f6565b505050565b6000806107c48361110b565b9050600073ffffffffffffffffffffffffffffffffffffffff168173ffffffffffffffffffffffffffffffffffffffff1603610835576040517f08c379a000000000000000000000000000000000000000000000000000000000815260040161082c9061241f565b60405180910390fd5b80915050919050565b60008073ffffffffffffffffffffffffffffffffffffffff168273ffffffffffffffffffffffffffffffffffffffff16036108ae576040517f08c379a00000000000000000000000000000000000000000000000000000000081526004016108a5906124b1565b60405180910390fd5b600360008373ffffffffffffffffffffffffffffffffffffffff1673ffffffffffffffffffffffffffffffffffffffff168152602001908152602001600020549050919050565b6108fd611148565b61090760006111c6565b565b6000600660009054906101000a900473ffffffffffffffffffffffffffffffffffffffff16905090565b606060018054610942906121ec565b80601f016020809104026020016040519081016040528092919081815260200182805461096e906121ec565b80156109bb5780601f10610990576101008083540402835291602001916109bb565b820191906000526020600020905b81548152906001019060200180831161099e57829003601f168201915b5050505050905090565b6109cd611148565b80600790816109dc919061267d565b5050565b6109f26109eb610cbc565b838361128c565b5050565b610a07610a01610cbc565b83610d7d565b610a46576040517f08c379a0000000000000000000000000000000000000000000000000000000008152600401610a3d906123b3565b60405180910390fd5b610a52848484846113f8565b50505050565b6000610a6633600854611454565b600160086000828254610a79919061277e565b92505081905550600854905090565b6060610a9382610c71565b6000610a9d611472565b90506000815111610abd5760405180602001604052806000815250610ae8565b80610ac784611489565b604051602001610ad89291906127ee565b6040516020818303038152906040525b915050919050565b6000600560008473ffffffffffffffffffffffffffffffffffffffff1673ffffffffffffffffffffffffffffffffffffffff16815260200190815260200160002060008373ffffffffffffffffffffffffffffffffffffffff1673ffffffffffffffffffffffffffffffffffffffff16815260200190815260200160002060009054906101000a900460ff16905092915050565b610b8c611148565b600073ffffffffffffffffffffffffffffffffffffffff168173ffffffffffffffffffffffffffffffffffffffff1603610bfb576040517f08c379a0000000000000000000000000000000000000000000000000000000008152600401610bf290612884565b60405180910390fd5b610c04816111c6565b50565b60007f01ffc9a7000000000000000000000000000000000000000000000000000000007bffffffffffffffffffffffffffffffffffffffffffffffffffffffff1916827bffffffffffffffffffffffffffffffffffffffffffffffffffffffff1916149050919050565b610c7a81611557565b610cb9576040517f08c379a0000000000000000000000000000000000000000000000000000000008152600401610cb09061241f565b60405180910390fd5b50565b600033905090565b816004600083815260200190815260200160002060006101000a81548173ffffffffffffffffffffffffffffffffffffffff021916908373ffffffffffffffffffffffffffffffffffffffff160217905550808273ffffffffffffffffffffffffffffffffffffffff16610d37836107b8565b73ffffffffffffffffffffffffffffffffffffffff167f8c5be1e5ebec7d5bd14f71427d1e84f3dd0314c0f7b2291e5b200ac8c7c3b92560405160405180910390a45050565b600080610d89836107b8565b90508073ffffffffffffffffffffffffffffffffffffffff168473ffffffffffffffffffffffffffffffffffffffff161480610dcb5750610dca8185610af0565b5b80610e0957508373ffffffffffffffffffffffffffffffffffffffff16610df184610547565b73ffffffffffffffffffffffffffffffffffffffff16145b91505092915050565b8273ffffffffffffffffffffffffffffffffffffffff16610e32826107b8565b73ffffffffffffffffffffffffffffffffffffffff1614610e88576040517f08c379a0000000000000000000000000000000000000000000000000000000008152600401610e7f90612916565b60405180910390fd5b600073ffffffffffffffffffffffffffffffffffffffff168273ffffffffffffffffffffffffffffffffffffffff1603610ef7576040517f08c379a0000000000000000000000000000000000000000000000000000000008152600401610eee906129a8565b60405180910390fd5b610f048383836001611598565b8273ffffffffffffffffffffffffffffffffffffffff16610f24826107b8565b73ffffffffffffffffffffffffffffffffffffffff1614610f7a576040517f08c379a0000000000000000000000000000000000000000000000000000000008152600401610f7190612916565b60405180910390fd5b6004600082815260200190815260200160002060006101000a81549073ffffffffffffffffffffffffffffffffffffffff02191690556001600360008573ffffffffffffffffffffffffffffffffffffffff1673ffffffffffffffffffffffffffffffffffffffff168152602001908152602001600020600082825403925050819055506001600360008473ffffffffffffffffffffffffffffffffffffffff1673ffffffffffffffffffffffffffffffffffffffff16815260200190815260200160002060008282540192505081905550816002600083815260200190815260200160002060006101000a81548173ffffffffffffffffffffffffffffffffffffffff021916908373ffffffffffffffffffffffffffffffffffffffff160217905550808273ffffffffffffffffffffffffffffffffffffffff168473ffffffffffffffffffffffffffffffffffffffff167fddf252ad1be2c89b69c2b068fc378daa952ba7f163c4a11628f55a4df523b3ef60405160405180910390a4611106838383600161159e565b505050565b60006002600083815260200190815260200160002060009054906101000a900473ffffffffffffffffffffffffffffffffffffffff169050919050565b611150610cbc565b73ffffffffffffffffffffffffffffffffffffffff1661116e610909565b73ffffffffffffffffffffffffffffffffffffffff16146111c4576040517f08c379a00000000000000000000000000000000000000000000000000000000081526004016111bb90612a14565b60405180910390fd5b565b6000600660009054906101000a900473ffffffffffffffffffffffffffffffffffffffff16905081600660006101000a81548173ffffffffffffffffffffffffffffffffffffffff021916908373ffffffffffffffffffffffffffffffffffffffff1602179055508173ffffffffffffffffffffffffffffffffffffffff168173ffffffffffffffffffffffffffffffffffffffff167f8be0079c531659141344cd1fd0a4f28419497f9722a3daafe3b4186f6b6457e060405160405180910390a35050565b8173ffffffffffffffffffffffffffffffffffffffff168373ffffffffffffffffffffffffffffffffffffffff16036112fa576040517f08c379a00000000000000000000000000000000000000000000000000000000081526004016112f190612a80565b60405180910390fd5b80600560008573ffffffffffffffffffffffffffffffffffffffff1673ffffffffffffffffffffffffffffffffffffffff16815260200190815260200160002060008473ffffffffffffffffffffffffffffffffffffffff1673ffffffffffffffffffffffffffffffffffffffff16815260200190815260200160002060006101000a81548160ff0219169083151502179055508173ffffffffffffffffffffffffffffffffffffffff168373ffffffffffffffffffffffffffffffffffffffff167f17307eab39ab6107e8899845ad3d59bd9653f200f220920489ca2b5937696c31836040516113eb9190611bcd565b60405180910390a3505050565b611403848484610e12565b61140f848484846115a4565b61144e576040517f08c379a000000000000000000000000000000000000000000000000000000000815260040161144590612b12565b60405180910390fd5b50505050565b61146e82826040518060200160405280600081525061172b565b5050565b606060405180602001604052806000815250905090565b60606000600161149884611786565b01905060008167ffffffffffffffff8111156114b7576114b6611e79565b5b6040519080825280601f01601f1916602001820160405280156114e95781602001600182028036833780820191505090505b509050600082602001820190505b60011561154c578080600190039150507f3031323334353637383961626364656600000000000000000000000000000000600a86061a8153600a85816115405761153f612b32565b5b049450600085036114f7575b819350505050919050565b60008073ffffffffffffffffffffffffffffffffffffffff166115798361110b565b73ffffffffffffffffffffffffffffffffffffffff1614159050919050565b50505050565b50505050565b60006115c58473ffffffffffffffffffffffffffffffffffffffff166118d9565b1561171e578373ffffffffffffffffffffffffffffffffffffffff1663150b7a026115ee610cbc565b8786866040518563ffffffff1660e01b81526004016116109493929190612bb6565b6020604051808303816000875af192505050801561164c57506040513d601f19601f820116820180604052508101906116499190612c17565b60015b6116ce573d806000811461167c576040519150601f19603f3d011682016040523d82523d6000602084013e611681565b606091505b5060008151036116c6576040517f08c379a00000000000000000000000000000000000000000000000000000000081526004016116bd90612b12565b60405180910390fd5b805181602001fd5b63150b7a0260e01b7bffffffffffffffffffffffffffffffffffffffffffffffffffffffff1916817bffffffffffffffffffffffffffffffffffffffffffffffffffffffff191614915050611723565b600190505b949350505050565b61173583836118fc565b61174260008484846115a4565b611781576040517f08c379a000000000000000000000000000000000000000000000000000000000815260040161177890612b12565b60405180910390fd5b505050565b600080600090507a184f03e93ff9f4daa797ed6e38ed64bf6a1f01000000000000000083106117e4577a184f03e93ff9f4daa797ed6e38ed64bf6a1f01000000000000000083816117da576117d9612b32565b5b0492506040810190505b6d04ee2d6d415b85acef81000000008310611821576d04ee2d6d415b85acef8100000000838161181757611816612b32565b5b0492506020810190505b662386f26fc10000831061185057662386f26fc10000838161184657611845612b32565b5b0492506010810190505b6305f5e1008310611879576305f5e100838161186f5761186e612b32565b5b0492506008810190505b612710831061189e57612710838161189457611893612b32565b5b0492506004810190505b606483106118c157606483816118b7576118b6612b32565b5b0492506002810190505b600a83106118d0576001810190505b80915050919050565b6000808273ffffffffffffffffffffffffffffffffffffffff163b119050919050565b600073ffffffffffffffffffffffffffffffffffffffff168273ffffffffffffffffffffffffffffffffffffffff160361196b576040517f08c379a000000000000000000000000000000000000000000000000000000000815260040161196290612c90565b60405180910390fd5b61197481611557565b156119b4576040517f08c379a00000000000000000000000000000000000000000000000000000000081526004016119ab90612cfc565b60405180910390fd5b6119c2600083836001611598565b6119cb81611557565b15611a0b576040517f08c379a0000000000000000000000000000000000000000000000000000000008152600401611a0290612cfc565b60405180910390fd5b6001600360008473ffffffffffffffffffffffffffffffffffffffff1673ffffffffffffffffffffffffffffffffffffffff16815260200190815260200160002060008282540192505081905550816002600083815260200190815260200160002060006101000a81548173ffffffffffffffffffffffffffffffffffffffff021916908373ffffffffffffffffffffffffffffffffffffffff160217905550808273ffffffffffffffffffffffffffffffffffffffff16600073ffffffffffffffffffffffffffffffffffffffff167fddf252ad1be2c89b69c2b068fc378daa952ba7f163c4a11628f55a4df523b3ef60405160405180910390a4611b1560008383600161159e565b5050565b6000604051905090565b600080fd5b600080fd5b60007fffffffff0000000000000000000000000000000000000000000000000000000082169050919050565b611b6281611b2d565b8114611b6d57600080fd5b50565b600081359050611b7f81611b59565b92915050565b600060208284031215611b9b57611b9a611b23565b5b6000611ba984828501611b70565b91505092915050565b60008115159050919050565b611bc781611bb2565b82525050565b6000602082019050611be26000830184611bbe565b92915050565b600081519050919050565b600082825260208201905092915050565b60005b83811015611c22578082015181840152602081019050611c07565b60008484015250505050565b6000601f19601f8301169050919050565b6000611c4a82611be8565b611c548185611bf3565b9350611c64818560208601611c04565b611c6d81611c2e565b840191505092915050565b60006020820190508181036000830152611c928184611c3f565b905092915050565b6000819050919050565b611cad81611c9a565b8114611cb857600080fd5b50565b600081359050611cca81611ca4565b92915050565b600060208284031215611ce657611ce5611b23565b5b6000611cf484828501611cbb565b91505092915050565b600073ffffffffffffffffffffffffffffffffffffffff82169050919050565b6000611d2882611cfd565b9050919050565b611d3881611d1d565b82525050565b6000602082019050611d536000830184611d2f565b92915050565b611d6281611d1d565b8114611d6d57600080fd5b50565b600081359050611d7f81611d59565b92915050565b60008060408385031215611d9c57611d9b611b23565b5b6000611daa85828601611d70565b9250506020611dbb85828601611cbb565b9150509250929050565b611dce81611c9a565b82525050565b6000602082019050611de96000830184611dc5565b92915050565b600080600060608486031215611e0857611e07611b23565b5b6000611e1686828701611d70565b9350506020611e2786828701611d70565b9250506040611e3886828701611cbb565b9150509250925092565b600060208284031215611e5857611e57611b23565b5b6000611e6684828501611d70565b91505092915050565b600080fd5b600080fd5b7f4e487b7100000000000000000000000000000000000000000000000000000000600052604160045260246000fd5b611eb182611c2e565b810181811067ffffffffffffffff82111715611ed057611ecf611e79565b5b80604052505050565b6000611ee3611b19565b9050611eef8282611ea8565b919050565b600067ffffffffffffffff821115611f0f57611f0e611e79565b5b611f1882611c2e565b9050602081019050919050565b82818337600083830152505050565b6000611f47611f4284611ef4565b611ed9565b905082815260208101848484011115611f6357611f62611e74565b5b611f6e848285611f25565b509392505050565b600082601f830112611f8b57611f8a611e6f565b5b8135611f9b848260208601611f34565b91505092915050565b600060208284031215611fba57611fb9611b23565b5b600082013567ffffffffffffffff811115611fd857611fd7611b28565b5b611fe484828501611f76565b91505092915050565b611ff681611bb2565b811461200157600080fd5b50565b60008135905061201381611fed565b92915050565b600080604083850312156120305761202f611b23565b5b600061203e85828601611d70565b925050602061204f85828601612004565b9150509250929050565b600067ffffffffffffffff82111561207457612073611e79565b5b61207d82611c2e565b9050602081019050919050565b600061209d61209884612059565b611ed9565b9050828152602081018484840111156120b9576120b8611e74565b5b6120c4848285611f25565b509392505050565b600082601f8301126120e1576120e0611e6f565b5b81356120f184826020860161208a565b91505092915050565b6000806000806080858703121561211457612113611b23565b5b600061212287828801611d70565b945050602061213387828801611d70565b935050604061214487828801611cbb565b925050606085013567ffffffffffffffff81111561216557612164611b28565b5b612171878288016120cc565b91505092959194509250565b6000806040838503121561219457612193611b23565b5b60006121a285828601611d70565b92505060206121b385828601611d70565b9150509250929050565b7f4e487b7100000000000000000000000000000000000000000000000000000000600052602260045260246000fd5b6000600282049050600182168061220457607f821691505b602082108103612217576122166121bd565b5b50919050565b7f4552433732313a20617070726f76616c20746f2063757272656e74206f776e6560008201527f7200000000000000000000000000000000000000000000000000000000000000602082015250565b6000612279602183611bf3565b91506122848261221d565b604082019050919050565b600060208201905081810360008301526122a88161226c565b9050919050565b7f4552433732313a20617070726f76652063616c6c6572206973206e6f7420746f60008201527f6b656e206f776e6572206f7220617070726f76656420666f7220616c6c000000602082015250565b600061230b603d83611bf3565b9150612316826122af565b604082019050919050565b6000602082019050818103600083015261233a816122fe565b9050919050565b7f4552433732313a2063616c6c6572206973206e6f7420746f6b656e206f776e6560008201527f72206f7220617070726f76656400000000000000000000000000000000000000602082015250565b600061239d602d83611bf3565b91506123a882612341565b604082019050919050565b600060208201905081810360008301526123cc81612390565b9050919050565b7f4552433732313a20696e76616c696420746f6b656e2049440000000000000000600082015250565b6000612409601883611bf3565b9150612414826123d3565b602082019050919050565b60006020820190508181036000830152612438816123fc565b9050919050565b7f4552433732313a2061646472657373207a65726f206973206e6f74206120766160008201527f6c6964206f776e65720000000000000000000000000000000000000000000000602082015250565b600061249b602983611bf3565b91506124a68261243f565b604082019050919050565b600060208201905081810360008301526124ca8161248e565b9050919050565b60008190508160005260206000209050919050565b60006020601f8301049050919050565b600082821b905092915050565b6000600883026125337fffffffffffffffffffffffffffffffffffffffffffffffffffffffffffffffff826124f6565b61253d86836124f6565b95508019841693508086168417925050509392505050565b6000819050919050565b600061257a61257561257084611c9a565b612555565b611c9a565b9050919050565b6000819050919050565b6125948361255f565b6125a86125a082612581565b848454612503565b825550505050565b600090565b6125bd6125b0565b6125c881848461258b565b505050565b5b818110156125ec576125e16000826125b5565b6001810190506125ce565b5050565b601f82111561263157612602816124d1565b61260b846124e6565b8101602085101561261a578190505b61262e612626856124e6565b8301826125cd565b50505b505050565b600082821c905092915050565b600061265460001984600802612636565b1980831691505092915050565b600061266d8383612643565b9150826002028217905092915050565b61268682611be8565b67ffffffffffffffff81111561269f5761269e611e79565b5b6126a982546121ec565b6126b48282856125f0565b600060209050601f8311600181146126e757600084156126d5578287015190505b6126df8582612661565b865550612747565b601f1984166126f5866124d1565b60005b8281101561271d578489015182556001820191506020850194506020810190506126f8565b8683101561273a5784890151612736601f891682612643565b8355505b6001600288020188555050505b505050505050565b7f4e487b7100000000000000000000000000000000000000000000000000000000600052601160045260246000fd5b600061278982611c9a565b915061279483611c9a565b92508282019050808211156127ac576127ab61274f565b5b92915050565b600081905092915050565b60006127c882611be8565b6127d281856127b2565b93506127e2818560208601611c04565b80840191505092915050565b60006127fa82856127bd565b915061280682846127bd565b91508190509392505050565b7f4f776e61626c653a206e6577206f776e657220697320746865207a65726f206160008201527f6464726573730000000000000000000000000000000000000000000000000000602082015250565b600061286e602683611bf3565b915061287982612812565b604082019050919050565b6000602082019050818103600083015261289d81612861565b9050919050565b7f4552433732313a207472616e736665722066726f6d20696e636f72726563742060008201527f6f776e6572000000000000000000000000000000000000000000000000000000602082015250565b6000612900602583611bf3565b915061290b826128a4565b604082019050919050565b6000602082019050818103600083015261292f816128f3565b9050919050565b7f4552433732313a207472616e7366657220746f20746865207a65726f2061646460008201527f7265737300000000000000000000000000000000000000000000000000000000602082015250565b6000612992602483611bf3565b915061299d82612936565b604082019050919050565b600060208201905081810360008301526129c181612985565b9050919050565b7f4f776e61626c653a2063616c6c6572206973206e6f7420746865206f776e6572600082015250565b60006129fe602083611bf3565b9150612a09826129c8565b602082019050919050565b60006020820190508181036000830152612a2d816129f1565b9050919050565b7f4552433732313a20617070726f766520746f2063616c6c657200000000000000600082015250565b6000612a6a601983611bf3565b9150612a7582612a34565b602082019050919050565b60006020820190508181036000830152612a9981612a5d565b9050919050565b7f4552433732313a207472616e7366657220746f206e6f6e20455243373231526560008201527f63656976657220696d706c656d656e7465720000000000000000000000000000602082015250565b6000612afc603283611bf3565b9150612b0782612aa0565b604082019050919050565b60006020820190508181036000830152612b2b81612aef565b9050919050565b7f4e487b7100000000000000000000000000000000000000000000000000000000600052601260045260246000fd5b600081519050919050565b600082825260208201905092915050565b6000612b8882612b61565b612b928185612b6c565b9350612ba2818560208601611c04565b612bab81611c2e565b840191505092915050565b6000608082019050612bcb6000830187611d2f565b612bd86020830186611d2f565b612be56040830185611dc5565b8181036060830152612bf78184612b7d565b905095945050505050565b600081519050612c1181611b59565b92915050565b600060208284031215612c2d57612c2c611b23565b5b6000612c3b84828501612c02565b91505092915050565b7f4552433732313a206d696e7420746f20746865207a65726f2061646472657373600082015250565b6000612c7a602083611bf3565b9150612c8582612c44565b602082019050919050565b60006020820190508181036000830152612ca981612c6d565b9050919050565b7f4552433732313a20746f6b656e20616c7265616479206d696e74656400000000600082015250565b6000612ce6601c83611bf3565b9150612cf182612cb0565b602082019050919050565b60006020820190508181036000830152612d1581612cd9565b905091905056fea2646970667358221220c645392db59bfbbe125e06dc6cef72fc47a46608594a3e1110b22e103336aaaa64736f6c63430008110033",
  "devdoc": {
    "kind": "dev",
    "methods": {
      "approve(address,uint256)": {
        "details": "See {IERC721-approve}."
      },
      "balanceOf(address)": {
        "details": "See {IERC721-balanceOf}."
      },
      "getApproved(uint256)": {
        "details": "See {IERC721-getApproved}."
      },
      "isApprovedForAll(address,address)": {
        "details": "See {IERC721-isApprovedForAll}."
      },
      "name()": {
        "details": "See {IERC721Metadata-name}."
      },
      "owner()": {
        "details": "Returns the address of the current owner."
      },
      "ownerOf(uint256)": {
        "details": "See {IERC721-ownerOf}."
      },
      "renounceOwnership()": {
        "details": "Leaves the contract without owner. It will not be possible to call `onlyOwner` functions. Can only be called by the current owner. NOTE: Renouncing ownership will leave the contract without an owner, thereby disabling any functionality that is only available to the owner."
      },
      "safeTransferFrom(address,address,uint256)": {
        "details": "See {IERC721-safeTransferFrom}."
      },
      "safeTransferFrom(address,address,uint256,bytes)": {
        "details": "See {IERC721-safeTransferFrom}."
      },
      "setApprovalForAll(address,bool)": {
        "details": "See {IERC721-setApprovalForAll}."
      },
      "supportsInterface(bytes4)": {
        "details": "See {IERC165-supportsInterface}."
      },
      "symbol()": {
        "details": "See {IERC721Metadata-symbol}."
      },
      "tokenURI(uint256)": {
        "details": "See {IERC721Metadata-tokenURI}."
      },
      "transferFrom(address,address,uint256)": {
        "details": "See {IERC721-transferFrom}."
      },
      "transferOwnership(address)": {
        "details": "Transfers ownership of the contract to a new account (`newOwner`). Can only be called by the current owner."
      }
    },
    "version": 1
  },
  "userdoc": {
    "kind": "user",
    "methods": {},
    "version": 1
  },
  "storageLayout": {
    "storage": [
      {
        "astId": 816,
        "contract": "contracts/DynamicNft.sol:DynamicNft",
        "label": "_name",
        "offset": 0,
        "slot": "0",
        "type": "t_string_storage"
      },
      {
        "astId": 818,
        "contract": "contracts/DynamicNft.sol:DynamicNft",
        "label": "_symbol",
        "offset": 0,
        "slot": "1",
        "type": "t_string_storage"
      },
      {
        "astId": 822,
        "contract": "contracts/DynamicNft.sol:DynamicNft",
        "label": "_owners",
        "offset": 0,
        "slot": "2",
        "type": "t_mapping(t_uint256,t_address)"
      },
      {
        "astId": 826,
        "contract": "contracts/DynamicNft.sol:DynamicNft",
        "label": "_balances",
        "offset": 0,
        "slot": "3",
        "type": "t_mapping(t_address,t_uint256)"
      },
      {
        "astId": 830,
        "contract": "contracts/DynamicNft.sol:DynamicNft",
        "label": "_tokenApprovals",
        "offset": 0,
        "slot": "4",
        "type": "t_mapping(t_uint256,t_address)"
      },
      {
        "astId": 836,
        "contract": "contracts/DynamicNft.sol:DynamicNft",
        "label": "_operatorApprovals",
        "offset": 0,
        "slot": "5",
        "type": "t_mapping(t_address,t_mapping(t_address,t_bool))"
      },
      {
        "astId": 7,
        "contract": "contracts/DynamicNft.sol:DynamicNft",
        "label": "_owner",
        "offset": 0,
        "slot": "6",
        "type": "t_address"
      },
      {
        "astId": 7582,
        "contract": "contracts/DynamicNft.sol:DynamicNft",
        "label": "tokenUri",
        "offset": 0,
        "slot": "7",
        "type": "t_string_storage"
      },
      {
        "astId": 7584,
        "contract": "contracts/DynamicNft.sol:DynamicNft",
        "label": "s_tokenCounter",
        "offset": 0,
        "slot": "8",
        "type": "t_uint256"
      }
    ],
    "types": {
      "t_address": {
        "encoding": "inplace",
        "label": "address",
        "numberOfBytes": "20"
      },
      "t_bool": {
        "encoding": "inplace",
        "label": "bool",
        "numberOfBytes": "1"
      },
      "t_mapping(t_address,t_bool)": {
        "encoding": "mapping",
        "key": "t_address",
        "label": "mapping(address => bool)",
        "numberOfBytes": "32",
        "value": "t_bool"
      },
      "t_mapping(t_address,t_mapping(t_address,t_bool))": {
        "encoding": "mapping",
        "key": "t_address",
        "label": "mapping(address => mapping(address => bool))",
        "numberOfBytes": "32",
        "value": "t_mapping(t_address,t_bool)"
      },
      "t_mapping(t_address,t_uint256)": {
        "encoding": "mapping",
        "key": "t_address",
        "label": "mapping(address => uint256)",
        "numberOfBytes": "32",
        "value": "t_uint256"
      },
      "t_mapping(t_uint256,t_address)": {
        "encoding": "mapping",
        "key": "t_uint256",
        "label": "mapping(uint256 => address)",
        "numberOfBytes": "32",
        "value": "t_address"
      },
      "t_string_storage": {
        "encoding": "bytes",
        "label": "string",
        "numberOfBytes": "32"
      },
      "t_uint256": {
        "encoding": "inplace",
        "label": "uint256",
        "numberOfBytes": "32"
      }
    }
  }
}