{
  "address": "0x5FbDB2315678afecb367f032d93F642f64180aa3",
  "abi": [
    {
      "inputs": [
        {
          "internalType": "string",
          "name": "_name",
          "type": "string"
        },
        {
          "internalType": "string",
          "name": "_symbol",
          "type": "string"
        },
        {
          "internalType": "uint256",
          "name": "_maxSupply",
          "type": "uint256"
        }
      ],
      "stateMutability": "nonpayable",
      "type": "constructor"
    },
    {
      "inputs": [],
      "name": "InvalidShortString",
      "type": "error"
    },
    {
      "inputs": [
        {
          "internalType": "string",
          "name": "str",
          "type": "string"
        }
      ],
      "name": "StringTooLong",
      "type": "error"
    },
    {
      "anonymous": false,
      "inputs": [
        {
          "indexed": true,
          "internalType": "address",
          "name": "owner",
          "type": "address"
        },
        {
          "indexed": true,
          "internalType": "address",
          "name": "spender",
          "type": "address"
        },
        {
          "indexed": false,
          "internalType": "uint256",
          "name": "value",
          "type": "uint256"
        }
      ],
      "name": "Approval",
      "type": "event"
    },
    {
      "anonymous": false,
      "inputs": [
        {
          "indexed": true,
          "internalType": "address",
          "name": "delegator",
          "type": "address"
        },
        {
          "indexed": true,
          "internalType": "address",
          "name": "fromDelegate",
          "type": "address"
        },
        {
          "indexed": true,
          "internalType": "address",
          "name": "toDelegate",
          "type": "address"
        }
      ],
      "name": "DelegateChanged",
      "type": "event"
    },
    {
      "anonymous": false,
      "inputs": [
        {
          "indexed": true,
          "internalType": "address",
          "name": "delegate",
          "type": "address"
        },
        {
          "indexed": false,
          "internalType": "uint256",
          "name": "previousBalance",
          "type": "uint256"
        },
        {
          "indexed": false,
          "internalType": "uint256",
          "name": "newBalance",
          "type": "uint256"
        }
      ],
      "name": "DelegateVotesChanged",
      "type": "event"
    },
    {
      "anonymous": false,
      "inputs": [],
      "name": "EIP712DomainChanged",
      "type": "event"
    },
    {
      "anonymous": false,
      "inputs": [
        {
          "indexed": true,
          "internalType": "address",
          "name": "from",
          "type": "address"
        },
        {
          "indexed": true,
          "internalType": "address",
          "name": "to",
          "type": "address"
        },
        {
          "indexed": false,
          "internalType": "uint256",
          "name": "value",
          "type": "uint256"
        }
      ],
      "name": "Transfer",
      "type": "event"
    },
    {
      "inputs": [],
      "name": "CLOCK_MODE",
      "outputs": [
        {
          "internalType": "string",
          "name": "",
          "type": "string"
        }
      ],
      "stateMutability": "view",
      "type": "function"
    },
    {
      "inputs": [],
      "name": "DOMAIN_SEPARATOR",
      "outputs": [
        {
          "internalType": "bytes32",
          "name": "",
          "type": "bytes32"
        }
      ],
      "stateMutability": "view",
      "type": "function"
    },
    {
      "inputs": [
        {
          "internalType": "address",
          "name": "owner",
          "type": "address"
        },
        {
          "internalType": "address",
          "name": "spender",
          "type": "address"
        }
      ],
      "name": "allowance",
      "outputs": [
        {
          "internalType": "uint256",
          "name": "",
          "type": "uint256"
        }
      ],
      "stateMutability": "view",
      "type": "function"
    },
    {
      "inputs": [
        {
          "internalType": "address",
          "name": "spender",
          "type": "address"
        },
        {
          "internalType": "uint256",
          "name": "amount",
          "type": "uint256"
        }
      ],
      "name": "approve",
      "outputs": [
        {
          "internalType": "bool",
          "name": "",
          "type": "bool"
        }
      ],
      "stateMutability": "nonpayable",
      "type": "function"
    },
    {
      "inputs": [
        {
          "internalType": "address",
          "name": "account",
          "type": "address"
        }
      ],
      "name": "balanceOf",
      "outputs": [
        {
          "internalType": "uint256",
          "name": "",
          "type": "uint256"
        }
      ],
      "stateMutability": "view",
      "type": "function"
    },
    {
      "inputs": [
        {
          "internalType": "address",
          "name": "account",
          "type": "address"
        },
        {
          "internalType": "uint32",
          "name": "pos",
          "type": "uint32"
        }
      ],
      "name": "checkpoints",
      "outputs": [
        {
          "components": [
            {
              "internalType": "uint32",
              "name": "fromBlock",
              "type": "uint32"
            },
            {
              "internalType": "uint224",
              "name": "votes",
              "type": "uint224"
            }
          ],
          "internalType": "struct ERC20Votes.Checkpoint",
          "name": "",
          "type": "tuple"
        }
      ],
      "stateMutability": "view",
      "type": "function"
    },
    {
      "inputs": [],
      "name": "clock",
      "outputs": [
        {
          "internalType": "uint48",
          "name": "",
          "type": "uint48"
        }
      ],
      "stateMutability": "view",
      "type": "function"
    },
    {
      "inputs": [],
      "name": "decimals",
      "outputs": [
        {
          "internalType": "uint8",
          "name": "",
          "type": "uint8"
        }
      ],
      "stateMutability": "view",
      "type": "function"
    },
    {
      "inputs": [
        {
          "internalType": "address",
          "name": "spender",
          "type": "address"
        },
        {
          "internalType": "uint256",
          "name": "subtractedValue",
          "type": "uint256"
        }
      ],
      "name": "decreaseAllowance",
      "outputs": [
        {
          "internalType": "bool",
          "name": "",
          "type": "bool"
        }
      ],
      "stateMutability": "nonpayable",
      "type": "function"
    },
    {
      "inputs": [
        {
          "internalType": "address",
          "name": "delegatee",
          "type": "address"
        }
      ],
      "name": "delegate",
      "outputs": [],
      "stateMutability": "nonpayable",
      "type": "function"
    },
    {
      "inputs": [
        {
          "internalType": "address",
          "name": "delegatee",
          "type": "address"
        },
        {
          "internalType": "uint256",
          "name": "nonce",
          "type": "uint256"
        },
        {
          "internalType": "uint256",
          "name": "expiry",
          "type": "uint256"
        },
        {
          "internalType": "uint8",
          "name": "v",
          "type": "uint8"
        },
        {
          "internalType": "bytes32",
          "name": "r",
          "type": "bytes32"
        },
        {
          "internalType": "bytes32",
          "name": "s",
          "type": "bytes32"
        }
      ],
      "name": "delegateBySig",
      "outputs": [],
      "stateMutability": "nonpayable",
      "type": "function"
    },
    {
      "inputs": [
        {
          "internalType": "address",
          "name": "account",
          "type": "address"
        }
      ],
      "name": "delegates",
      "outputs": [
        {
          "internalType": "address",
          "name": "",
          "type": "address"
        }
      ],
      "stateMutability": "view",
      "type": "function"
    },
    {
      "inputs": [],
      "name": "eip712Domain",
      "outputs": [
        {
          "internalType": "bytes1",
          "name": "fields",
          "type": "bytes1"
        },
        {
          "internalType": "string",
          "name": "name",
          "type": "string"
        },
        {
          "internalType": "string",
          "name": "version",
          "type": "string"
        },
        {
          "internalType": "uint256",
          "name": "chainId",
          "type": "uint256"
        },
        {
          "internalType": "address",
          "name": "verifyingContract",
          "type": "address"
        },
        {
          "internalType": "bytes32",
          "name": "salt",
          "type": "bytes32"
        },
        {
          "internalType": "uint256[]",
          "name": "extensions",
          "type": "uint256[]"
        }
      ],
      "stateMutability": "view",
      "type": "function"
    },
    {
      "inputs": [
        {
          "internalType": "uint256",
          "name": "timepoint",
          "type": "uint256"
        }
      ],
      "name": "getPastTotalSupply",
      "outputs": [
        {
          "internalType": "uint256",
          "name": "",
          "type": "uint256"
        }
      ],
      "stateMutability": "view",
      "type": "function"
    },
    {
      "inputs": [
        {
          "internalType": "address",
          "name": "account",
          "type": "address"
        },
        {
          "internalType": "uint256",
          "name": "timepoint",
          "type": "uint256"
        }
      ],
      "name": "getPastVotes",
      "outputs": [
        {
          "internalType": "uint256",
          "name": "",
          "type": "uint256"
        }
      ],
      "stateMutability": "view",
      "type": "function"
    },
    {
      "inputs": [
        {
          "internalType": "address",
          "name": "account",
          "type": "address"
        }
      ],
      "name": "getVotes",
      "outputs": [
        {
          "internalType": "uint256",
          "name": "",
          "type": "uint256"
        }
      ],
      "stateMutability": "view",
      "type": "function"
    },
    {
      "inputs": [
        {
          "internalType": "address",
          "name": "spender",
          "type": "address"
        },
        {
          "internalType": "uint256",
          "name": "addedValue",
          "type": "uint256"
        }
      ],
      "name": "increaseAllowance",
      "outputs": [
        {
          "internalType": "bool",
          "name": "",
          "type": "bool"
        }
      ],
      "stateMutability": "nonpayable",
      "type": "function"
    },
    {
      "inputs": [],
      "name": "name",
      "outputs": [
        {
          "internalType": "string",
          "name": "",
          "type": "string"
        }
      ],
      "stateMutability": "view",
      "type": "function"
    },
    {
      "inputs": [
        {
          "internalType": "address",
          "name": "owner",
          "type": "address"
        }
      ],
      "name": "nonces",
      "outputs": [
        {
          "internalType": "uint256",
          "name": "",
          "type": "uint256"
        }
      ],
      "stateMutability": "view",
      "type": "function"
    },
    {
      "inputs": [
        {
          "internalType": "address",
          "name": "account",
          "type": "address"
        }
      ],
      "name": "numCheckpoints",
      "outputs": [
        {
          "internalType": "uint32",
          "name": "",
          "type": "uint32"
        }
      ],
      "stateMutability": "view",
      "type": "function"
    },
    {
      "inputs": [
        {
          "internalType": "address",
          "name": "owner",
          "type": "address"
        },
        {
          "internalType": "address",
          "name": "spender",
          "type": "address"
        },
        {
          "internalType": "uint256",
          "name": "value",
          "type": "uint256"
        },
        {
          "internalType": "uint256",
          "name": "deadline",
          "type": "uint256"
        },
        {
          "internalType": "uint8",
          "name": "v",
          "type": "uint8"
        },
        {
          "internalType": "bytes32",
          "name": "r",
          "type": "bytes32"
        },
        {
          "internalType": "bytes32",
          "name": "s",
          "type": "bytes32"
        }
      ],
      "name": "permit",
      "outputs": [],
      "stateMutability": "nonpayable",
      "type": "function"
    },
    {
      "inputs": [],
      "name": "s_maxSupply",
      "outputs": [
        {
          "internalType": "uint256",
          "name": "",
          "type": "uint256"
        }
      ],
      "stateMutability": "view",
      "type": "function"
    },
    {
      "inputs": [],
      "name": "symbol",
      "outputs": [
        {
          "internalType": "string",
          "name": "",
          "type": "string"
        }
      ],
      "stateMutability": "view",
      "type": "function"
    },
    {
      "inputs": [],
      "name": "totalSupply",
      "outputs": [
        {
          "internalType": "uint256",
          "name": "",
          "type": "uint256"
        }
      ],
      "stateMutability": "view",
      "type": "function"
    },
    {
      "inputs": [
        {
          "internalType": "address",
          "name": "to",
          "type": "address"
        },
        {
          "internalType": "uint256",
          "name": "amount",
          "type": "uint256"
        }
      ],
      "name": "transfer",
      "outputs": [
        {
          "internalType": "bool",
          "name": "",
          "type": "bool"
        }
      ],
      "stateMutability": "nonpayable",
      "type": "function"
    },
    {
      "inputs": [
        {
          "internalType": "address",
          "name": "from",
          "type": "address"
        },
        {
          "internalType": "address",
          "name": "to",
          "type": "address"
        },
        {
          "internalType": "uint256",
          "name": "amount",
          "type": "uint256"
        }
      ],
      "name": "transferFrom",
      "outputs": [
        {
          "internalType": "bool",
          "name": "",
          "type": "bool"
        }
      ],
      "stateMutability": "nonpayable",
      "type": "function"
    }
  ],
  "transactionHash": "0x773247c1a96366ef6c6c63dd8dc4104fb8b3b33ebc394193499f896f87da3037",
  "args": [
    "GovernanceFT",
    "Gft",
    "100000000000000000000"
  ],
  "numDeployments": 1,
  "solcInputHash": "b3a67ca4ba102d9ea737e4e8f592a048",
  "bytecode": "0x6101606040523480156200001257600080fd5b5060405162005b1238038062005b12833981810160405281019062000038919062000e90565b82806040518060400160405280600181526020017f3100000000000000000000000000000000000000000000000000000000000000815250858581600390816200008391906200116b565b5080600490816200009591906200116b565b505050620000b36005836200017760201b620011001790919060201c565b6101208181525050620000d66006826200017760201b620011001790919060201c565b6101408181525050818051906020012060e08181525050808051906020012061010081815250504660a0818152505062000115620001d460201b60201c565b608081815250503073ffffffffffffffffffffffffffffffffffffffff1660c08173ffffffffffffffffffffffffffffffffffffffff168152505050505080600c819055506200016e33600c546200023160201b60201c565b505050620017f9565b60006020835110156200019d5762000195836200024c60201b60201c565b9050620001ce565b82620001b483620002b960201b620011441760201c565b6000019081620001c591906200116b565b5060ff60001b90505b92915050565b60007f8b73c3c69bb8fe3d512ecc4cf759cc79239f7b179b0ffacaa9a75d522b39400f60e05161010051463060405160200162000216959493929190620012c3565b60405160208183030381529060405280519060200120905090565b620002488282620002c360201b6200114e1760201c565b5050565b600080829050601f815111156200029c57826040517f305a27a900000000000000000000000000000000000000000000000000000000815260040162000293919062001372565b60405180910390fd5b805181620002aa90620013c8565b60001c1760001b915050919050565b6000819050919050565b620002da82826200038160201b620011db1760201c565b620002ea620004ee60201b60201c565b7bffffffffffffffffffffffffffffffffffffffffffffffffffffffff16620003186200051260201b60201c565b11156200035c576040517f08c379a00000000000000000000000000000000000000000000000000000000081526004016200035390620014ae565b60405180910390fd5b6200037b600b6200051c60201b6200133117836200053460201b60201c565b50505050565b600073ffffffffffffffffffffffffffffffffffffffff168273ffffffffffffffffffffffffffffffffffffffff1603620003f3576040517f08c379a0000000000000000000000000000000000000000000000000000000008152600401620003ea9062001520565b60405180910390fd5b62000407600083836200085960201b60201c565b80600260008282546200041b919062001571565b92505081905550806000808473ffffffffffffffffffffffffffffffffffffffff1673ffffffffffffffffffffffffffffffffffffffff168152602001908152602001600020600082825401925050819055508173ffffffffffffffffffffffffffffffffffffffff16600073ffffffffffffffffffffffffffffffffffffffff167fddf252ad1be2c89b69c2b068fc378daa952ba7f163c4a11628f55a4df523b3ef83604051620004ce9190620015ac565b60405180910390a3620004ea600083836200085e60201b60201c565b5050565b60007bffffffffffffffffffffffffffffffffffffffffffffffffffffffff905090565b6000600254905090565b600081836200052c919062001571565b905092915050565b600080600085805490509050600080821462000604576200055f87600184036200087b60201b60201c565b6040518060400160405290816000820160009054906101000a900463ffffffff1663ffffffff1663ffffffff1681526020016000820160049054906101000a90047bffffffffffffffffffffffffffffffffffffffffffffffffffffffff167bffffffffffffffffffffffffffffffffffffffffffffffffffffffff167bffffffffffffffffffffffffffffffffffffffffffffffffffffffff168152505062000640565b6040518060400160405280600063ffffffff16815260200160007bffffffffffffffffffffffffffffffffffffffffffffffffffffffff168152505b905080602001517bffffffffffffffffffffffffffffffffffffffffffffffffffffffff1693506200067384868860201c565b9250600082118015620006a65750620006916200089060201b60201c565b65ffffffffffff16816000015163ffffffff16145b156200072e57620006c283620008ad60201b620013471760201c565b620006d788600185036200087b60201b60201c565b60000160046101000a8154817bffffffffffffffffffffffffffffffffffffffffffffffffffffffff02191690837bffffffffffffffffffffffffffffffffffffffffffffffffffffffff1602179055506200084f565b866040518060400160405280620007676200074e6200089060201b60201c565b65ffffffffffff166200091b60201b620013b21760201c565b63ffffffff1681526020016200078886620008ad60201b620013471760201c565b7bffffffffffffffffffffffffffffffffffffffffffffffffffffffff168152509080600181540180825580915050600190039060005260206000200160009091909190915060008201518160000160006101000a81548163ffffffff021916908363ffffffff16021790555060208201518160000160046101000a8154817bffffffffffffffffffffffffffffffffffffffffffffffffffffffff02191690837bffffffffffffffffffffffffffffffffffffffffffffffffffffffff16021790555050505b5050935093915050565b505050565b620008768383836200097160201b620014051760201c565b505050565b60008260005281602060002001905092915050565b6000620008a843620009c160201b620014301760201c565b905090565b60007bffffffffffffffffffffffffffffffffffffffffffffffffffffffff801682111562000913576040517f08c379a00000000000000000000000000000000000000000000000000000000081526004016200090a906200163f565b60405180910390fd5b819050919050565b600063ffffffff801682111562000969576040517f08c379a00000000000000000000000000000000000000000000000000000000081526004016200096090620016d7565b60405180910390fd5b819050919050565b6200098983838362000a1960201b620014851760201c565b620009bc6200099e8462000a1e60201b60201c565b620009af8462000a1e60201b60201c565b8362000a8760201b60201c565b505050565b600065ffffffffffff801682111562000a11576040517f08c379a000000000000000000000000000000000000000000000000000000000815260040162000a08906200176f565b60405180910390fd5b819050919050565b505050565b6000600960008373ffffffffffffffffffffffffffffffffffffffff1673ffffffffffffffffffffffffffffffffffffffff16815260200190815260200160002060009054906101000a900473ffffffffffffffffffffffffffffffffffffffff169050919050565b8173ffffffffffffffffffffffffffffffffffffffff168373ffffffffffffffffffffffffffffffffffffffff161415801562000ac45750600081115b1562000ca557600073ffffffffffffffffffffffffffffffffffffffff168373ffffffffffffffffffffffffffffffffffffffff161462000bb75760008062000b5e600a60008773ffffffffffffffffffffffffffffffffffffffff1673ffffffffffffffffffffffffffffffffffffffff16815260200190815260200160002062000caa60201b6200148a17856200053460201b60201c565b915091508473ffffffffffffffffffffffffffffffffffffffff167fdec2bacdd2f05b59de34da9b523dff8be42e5e38e818c82fdb0bae774387a724838360405162000bac92919062001791565b60405180910390a250505b600073ffffffffffffffffffffffffffffffffffffffff168273ffffffffffffffffffffffffffffffffffffffff161462000ca45760008062000c4b600a60008673ffffffffffffffffffffffffffffffffffffffff1673ffffffffffffffffffffffffffffffffffffffff1681526020019081526020016000206200051c60201b6200133117856200053460201b60201c565b915091508373ffffffffffffffffffffffffffffffffffffffff167fdec2bacdd2f05b59de34da9b523dff8be42e5e38e818c82fdb0bae774387a724838360405162000c9992919062001791565b60405180910390a250505b5b505050565b6000818362000cba9190620017be565b905092915050565b6000604051905090565b600080fd5b600080fd5b600080fd5b600080fd5b6000601f19601f8301169050919050565b7f4e487b7100000000000000000000000000000000000000000000000000000000600052604160045260246000fd5b62000d2b8262000ce0565b810181811067ffffffffffffffff8211171562000d4d5762000d4c62000cf1565b5b80604052505050565b600062000d6262000cc2565b905062000d70828262000d20565b919050565b600067ffffffffffffffff82111562000d935762000d9262000cf1565b5b62000d9e8262000ce0565b9050602081019050919050565b60005b8381101562000dcb57808201518184015260208101905062000dae565b60008484015250505050565b600062000dee62000de88462000d75565b62000d56565b90508281526020810184848401111562000e0d5762000e0c62000cdb565b5b62000e1a84828562000dab565b509392505050565b600082601f83011262000e3a5762000e3962000cd6565b5b815162000e4c84826020860162000dd7565b91505092915050565b6000819050919050565b62000e6a8162000e55565b811462000e7657600080fd5b50565b60008151905062000e8a8162000e5f565b92915050565b60008060006060848603121562000eac5762000eab62000ccc565b5b600084015167ffffffffffffffff81111562000ecd5762000ecc62000cd1565b5b62000edb8682870162000e22565b935050602084015167ffffffffffffffff81111562000eff5762000efe62000cd1565b5b62000f0d8682870162000e22565b925050604062000f208682870162000e79565b9150509250925092565b600081519050919050565b7f4e487b7100000000000000000000000000000000000000000000000000000000600052602260045260246000fd5b6000600282049050600182168062000f7d57607f821691505b60208210810362000f935762000f9262000f35565b5b50919050565b60008190508160005260206000209050919050565b60006020601f8301049050919050565b600082821b905092915050565b60006008830262000ffd7fffffffffffffffffffffffffffffffffffffffffffffffffffffffffffffffff8262000fbe565b62001009868362000fbe565b95508019841693508086168417925050509392505050565b6000819050919050565b60006200104c62001046620010408462000e55565b62001021565b62000e55565b9050919050565b6000819050919050565b62001068836200102b565b62001080620010778262001053565b84845462000fcb565b825550505050565b600090565b6200109762001088565b620010a48184846200105d565b505050565b5b81811015620010cc57620010c06000826200108d565b600181019050620010aa565b5050565b601f8211156200111b57620010e58162000f99565b620010f08462000fae565b8101602085101562001100578190505b620011186200110f8562000fae565b830182620010a9565b50505b505050565b600082821c905092915050565b6000620011406000198460080262001120565b1980831691505092915050565b60006200115b83836200112d565b9150826002028217905092915050565b620011768262000f2a565b67ffffffffffffffff81111562001192576200119162000cf1565b5b6200119e825462000f64565b620011ab828285620010d0565b600060209050601f831160018114620011e35760008415620011ce578287015190505b620011da85826200114d565b8655506200124a565b601f198416620011f38662000f99565b60005b828110156200121d57848901518255600182019150602085019450602081019050620011f6565b868310156200123d578489015162001239601f8916826200112d565b8355505b6001600288020188555050505b505050505050565b6000819050919050565b620012678162001252565b82525050565b620012788162000e55565b82525050565b600073ffffffffffffffffffffffffffffffffffffffff82169050919050565b6000620012ab826200127e565b9050919050565b620012bd816200129e565b82525050565b600060a082019050620012da60008301886200125c565b620012e960208301876200125c565b620012f860408301866200125c565b6200130760608301856200126d565b620013166080830184620012b2565b9695505050505050565b600082825260208201905092915050565b60006200133e8262000f2a565b6200134a818562001320565b93506200135c81856020860162000dab565b620013678162000ce0565b840191505092915050565b600060208201905081810360008301526200138e818462001331565b905092915050565b600081519050919050565b6000819050602082019050919050565b6000620013bf825162001252565b80915050919050565b6000620013d58262001396565b82620013e184620013a1565b9050620013ee81620013b1565b9250602082101562001431576200142c7fffffffffffffffffffffffffffffffffffffffffffffffffffffffffffffffff8360200360080262000fbe565b831692505b5050919050565b7f4552433230566f7465733a20746f74616c20737570706c79207269736b73206f60008201527f766572666c6f77696e6720766f74657300000000000000000000000000000000602082015250565b60006200149660308362001320565b9150620014a38262001438565b604082019050919050565b60006020820190508181036000830152620014c98162001487565b9050919050565b7f45524332303a206d696e7420746f20746865207a65726f206164647265737300600082015250565b600062001508601f8362001320565b91506200151582620014d0565b602082019050919050565b600060208201905081810360008301526200153b81620014f9565b9050919050565b7f4e487b7100000000000000000000000000000000000000000000000000000000600052601160045260246000fd5b60006200157e8262000e55565b91506200158b8362000e55565b9250828201905080821115620015a657620015a562001542565b5b92915050565b6000602082019050620015c360008301846200126d565b92915050565b7f53616665436173743a2076616c756520646f65736e27742066697420696e203260008201527f3234206269747300000000000000000000000000000000000000000000000000602082015250565b60006200162760278362001320565b91506200163482620015c9565b604082019050919050565b600060208201905081810360008301526200165a8162001618565b9050919050565b7f53616665436173743a2076616c756520646f65736e27742066697420696e203360008201527f3220626974730000000000000000000000000000000000000000000000000000602082015250565b6000620016bf60268362001320565b9150620016cc8262001661565b604082019050919050565b60006020820190508181036000830152620016f281620016b0565b9050919050565b7f53616665436173743a2076616c756520646f65736e27742066697420696e203460008201527f3820626974730000000000000000000000000000000000000000000000000000602082015250565b60006200175760268362001320565b91506200176482620016f9565b604082019050919050565b600060208201905081810360008301526200178a8162001748565b9050919050565b6000604082019050620017a860008301856200126d565b620017b760208301846200126d565b9392505050565b6000620017cb8262000e55565b9150620017d88362000e55565b9250828203905081811115620017f357620017f262001542565b5b92915050565b60805160a05160c05160e0516101005161012051610140516142be6200185460003960006109bf0152600061098b015260006123a80152600061238701526000611977015260006119cd015260006119f601526142be6000f3fe608060405234801561001057600080fd5b506004361061018e5760003560e01c806370a08231116100de5780639ab24eb011610097578063c3cda52011610071578063c3cda52014610503578063d505accf1461051f578063dd62ed3e1461053b578063f1127ed81461056b5761018e565b80639ab24eb014610473578063a457c2d7146104a3578063a9059cbb146104d35761018e565b806370a08231146103835780637ecebe00146103b357806384b0196e146103e35780638e539e8c1461040757806391ddadf41461043757806395d89b41146104555761018e565b8063395093511161014b578063587cde1e11610125578063587cde1e146102e95780635c19a95c146103195780635d641847146103355780636fcfff45146103535761018e565b8063395093511461026b5780633a46b1a81461029b5780634bf5d7e9146102cb5761018e565b806306fdde0314610193578063095ea7b3146101b157806318160ddd146101e157806323b872dd146101ff578063313ce5671461022f5780633644e5151461024d575b600080fd5b61019b61059b565b6040516101a89190612a57565b60405180910390f35b6101cb60048036038101906101c69190612b12565b61062d565b6040516101d89190612b6d565b60405180910390f35b6101e9610650565b6040516101f69190612b97565b60405180910390f35b61021960048036038101906102149190612bb2565b61065a565b6040516102269190612b6d565b60405180910390f35b610237610689565b6040516102449190612c21565b60405180910390f35b610255610692565b6040516102629190612c55565b60405180910390f35b61028560048036038101906102809190612b12565b6106a1565b6040516102929190612b6d565b60405180910390f35b6102b560048036038101906102b09190612b12565b6106d8565b6040516102c29190612b97565b60405180910390f35b6102d361077b565b6040516102e09190612a57565b60405180910390f35b61030360048036038101906102fe9190612c70565b610809565b6040516103109190612cac565b60405180910390f35b610333600480360381019061032e9190612c70565b610872565b005b61033d610886565b60405161034a9190612b97565b60405180910390f35b61036d60048036038101906103689190612c70565b61088c565b60405161037a9190612ce6565b60405180910390f35b61039d60048036038101906103989190612c70565b6108e0565b6040516103aa9190612b97565b60405180910390f35b6103cd60048036038101906103c89190612c70565b610928565b6040516103da9190612b97565b60405180910390f35b6103eb610978565b6040516103fe9796959493929190612dfa565b60405180910390f35b610421600480360381019061041c9190612e7e565b610a7a565b60405161042e9190612b97565b60405180910390f35b61043f610adf565b60405161044c9190612ecc565b60405180910390f35b61045d610aef565b60405161046a9190612a57565b60405180910390f35b61048d60048036038101906104889190612c70565b610b81565b60405161049a9190612b97565b60405180910390f35b6104bd60048036038101906104b89190612b12565b610c89565b6040516104ca9190612b6d565b60405180910390f35b6104ed60048036038101906104e89190612b12565b610d00565b6040516104fa9190612b6d565b60405180910390f35b61051d60048036038101906105189190612f3f565b610d23565b005b61053960048036038101906105349190612fcc565b610e27565b005b6105556004803603810190610550919061306e565b610f69565b6040516105629190612b97565b60405180910390f35b610585600480360381019061058091906130da565b610ff0565b604051610592919061318f565b60405180910390f35b6060600380546105aa906131d9565b80601f01602080910402602001604051908101604052809291908181526020018280546105d6906131d9565b80156106235780601f106105f857610100808354040283529160200191610623565b820191906000526020600020905b81548152906001019060200180831161060657829003601f168201915b5050505050905090565b6000806106386114a0565b90506106458185856114a8565b600191505092915050565b6000600254905090565b6000806106656114a0565b9050610672858285611671565b61067d8585856116fd565b60019150509392505050565b60006012905090565b600061069c611973565b905090565b6000806106ac6114a0565b90506106cd8185856106be8589610f69565b6106c89190613239565b6114a8565b600191505092915050565b60006106e2610adf565b65ffffffffffff16821061072b576040517f08c379a0000000000000000000000000000000000000000000000000000000008152600401610722906132b9565b60405180910390fd5b610773600a60008573ffffffffffffffffffffffffffffffffffffffff1673ffffffffffffffffffffffffffffffffffffffff16815260200190815260200160002083611a2a565b905092915050565b606043610786610adf565b65ffffffffffff16146107ce576040517f08c379a00000000000000000000000000000000000000000000000000000000081526004016107c590613325565b60405180910390fd5b6040518060400160405280601d81526020017f6d6f64653d626c6f636b6e756d6265722666726f6d3d64656661756c74000000815250905090565b6000600960008373ffffffffffffffffffffffffffffffffffffffff1673ffffffffffffffffffffffffffffffffffffffff16815260200190815260200160002060009054906101000a900473ffffffffffffffffffffffffffffffffffffffff169050919050565b61088361087d6114a0565b82611b72565b50565b600c5481565b60006108d9600a60008473ffffffffffffffffffffffffffffffffffffffff1673ffffffffffffffffffffffffffffffffffffffff168152602001908152602001600020805490506113b2565b9050919050565b60008060008373ffffffffffffffffffffffffffffffffffffffff1673ffffffffffffffffffffffffffffffffffffffff168152602001908152602001600020549050919050565b6000610971600760008473ffffffffffffffffffffffffffffffffffffffff1673ffffffffffffffffffffffffffffffffffffffff168152602001908152602001600020611c8c565b9050919050565b6000606080600080600060606109b860057f0000000000000000000000000000000000000000000000000000000000000000611c9a90919063ffffffff16565b6109ec60067f0000000000000000000000000000000000000000000000000000000000000000611c9a90919063ffffffff16565b46306000801b600067ffffffffffffffff811115610a0d57610a0c613345565b5b604051908082528060200260200182016040528015610a3b5781602001602082028036833780820191505090505b507f0f00000000000000000000000000000000000000000000000000000000000000959493929190965096509650965096509650965090919293949596565b6000610a84610adf565b65ffffffffffff168210610acd576040517f08c379a0000000000000000000000000000000000000000000000000000000008152600401610ac4906132b9565b60405180910390fd5b610ad8600b83611a2a565b9050919050565b6000610aea43611430565b905090565b606060048054610afe906131d9565b80601f0160208091040260200160405190810160405280929190818152602001828054610b2a906131d9565b8015610b775780601f10610b4c57610100808354040283529160200191610b77565b820191906000526020600020905b815481529060010190602001808311610b5a57829003601f168201915b5050505050905090565b600080600a60008473ffffffffffffffffffffffffffffffffffffffff1673ffffffffffffffffffffffffffffffffffffffff16815260200190815260200160002080549050905060008114610c6057600a60008473ffffffffffffffffffffffffffffffffffffffff1673ffffffffffffffffffffffffffffffffffffffff1681526020019081526020016000206001820381548110610c2557610c24613374565b5b9060005260206000200160000160049054906101000a90047bffffffffffffffffffffffffffffffffffffffffffffffffffffffff16610c63565b60005b7bffffffffffffffffffffffffffffffffffffffffffffffffffffffff16915050919050565b600080610c946114a0565b90506000610ca28286610f69565b905083811015610ce7576040517f08c379a0000000000000000000000000000000000000000000000000000000008152600401610cde90613415565b60405180910390fd5b610cf482868684036114a8565b60019250505092915050565b600080610d0b6114a0565b9050610d188185856116fd565b600191505092915050565b83421115610d66576040517f08c379a0000000000000000000000000000000000000000000000000000000008152600401610d5d90613481565b60405180910390fd5b6000610dc8610dc07fe48329057bfd03d55e49b547132e39cffd9c1820ad7b9d4c5307691425d15adf898989604051602001610da594939291906134a1565b60405160208183030381529060405280519060200120611d4a565b858585611d64565b9050610dd381611d8f565b8614610e14576040517f08c379a0000000000000000000000000000000000000000000000000000000008152600401610e0b90613532565b60405180910390fd5b610e1e8188611b72565b50505050505050565b83421115610e6a576040517f08c379a0000000000000000000000000000000000000000000000000000000008152600401610e619061359e565b60405180910390fd5b60007f6e71edae12b1b97f4d1f60370fef10105fa2faae0126114a169c64845d6126c9888888610e998c611d8f565b89604051602001610eaf969594939291906135be565b6040516020818303038152906040528051906020012090506000610ed282611d4a565b90506000610ee282878787611d64565b90508973ffffffffffffffffffffffffffffffffffffffff168173ffffffffffffffffffffffffffffffffffffffff1614610f52576040517f08c379a0000000000000000000000000000000000000000000000000000000008152600401610f499061366b565b60405180910390fd5b610f5d8a8a8a6114a8565b50505050505050505050565b6000600160008473ffffffffffffffffffffffffffffffffffffffff1673ffffffffffffffffffffffffffffffffffffffff16815260200190815260200160002060008373ffffffffffffffffffffffffffffffffffffffff1673ffffffffffffffffffffffffffffffffffffffff16815260200190815260200160002054905092915050565b610ff8612989565b600a60008473ffffffffffffffffffffffffffffffffffffffff1673ffffffffffffffffffffffffffffffffffffffff1681526020019081526020016000208263ffffffff168154811061104f5761104e613374565b5b906000526020600020016040518060400160405290816000820160009054906101000a900463ffffffff1663ffffffff1663ffffffff1681526020016000820160049054906101000a90047bffffffffffffffffffffffffffffffffffffffffffffffffffffffff167bffffffffffffffffffffffffffffffffffffffffffffffffffffffff167bffffffffffffffffffffffffffffffffffffffffffffffffffffffff1681525050905092915050565b600060208351101561111c5761111583611ded565b905061113e565b8261112683611144565b60000190816111359190613837565b5060ff60001b90505b92915050565b6000819050919050565b61115882826111db565b611160611e55565b7bffffffffffffffffffffffffffffffffffffffffffffffffffffffff16611186610650565b11156111c7576040517f08c379a00000000000000000000000000000000000000000000000000000000081526004016111be9061397b565b60405180910390fd5b6111d5600b61133183611e79565b50505050565b600073ffffffffffffffffffffffffffffffffffffffff168273ffffffffffffffffffffffffffffffffffffffff160361124a576040517f08c379a0000000000000000000000000000000000000000000000000000000008152600401611241906139e7565b60405180910390fd5b61125660008383612154565b80600260008282546112689190613239565b92505081905550806000808473ffffffffffffffffffffffffffffffffffffffff1673ffffffffffffffffffffffffffffffffffffffff168152602001908152602001600020600082825401925050819055508173ffffffffffffffffffffffffffffffffffffffff16600073ffffffffffffffffffffffffffffffffffffffff167fddf252ad1be2c89b69c2b068fc378daa952ba7f163c4a11628f55a4df523b3ef836040516113199190612b97565b60405180910390a361132d60008383612159565b5050565b6000818361133f9190613239565b905092915050565b60007bffffffffffffffffffffffffffffffffffffffffffffffffffffffff80168211156113aa576040517f08c379a00000000000000000000000000000000000000000000000000000000081526004016113a190613a79565b60405180910390fd5b819050919050565b600063ffffffff80168211156113fd576040517f08c379a00000000000000000000000000000000000000000000000000000000081526004016113f490613b0b565b60405180910390fd5b819050919050565b611410838383611485565b61142b61141c84610809565b61142584610809565b83612169565b505050565b600065ffffffffffff801682111561147d576040517f08c379a000000000000000000000000000000000000000000000000000000000815260040161147490613b9d565b60405180910390fd5b819050919050565b505050565b600081836114989190613bbd565b905092915050565b600033905090565b600073ffffffffffffffffffffffffffffffffffffffff168373ffffffffffffffffffffffffffffffffffffffff1603611517576040517f08c379a000000000000000000000000000000000000000000000000000000000815260040161150e90613c63565b60405180910390fd5b600073ffffffffffffffffffffffffffffffffffffffff168273ffffffffffffffffffffffffffffffffffffffff1603611586576040517f08c379a000000000000000000000000000000000000000000000000000000000815260040161157d90613cf5565b60405180910390fd5b80600160008573ffffffffffffffffffffffffffffffffffffffff1673ffffffffffffffffffffffffffffffffffffffff16815260200190815260200160002060008473ffffffffffffffffffffffffffffffffffffffff1673ffffffffffffffffffffffffffffffffffffffff168152602001908152602001600020819055508173ffffffffffffffffffffffffffffffffffffffff168373ffffffffffffffffffffffffffffffffffffffff167f8c5be1e5ebec7d5bd14f71427d1e84f3dd0314c0f7b2291e5b200ac8c7c3b925836040516116649190612b97565b60405180910390a3505050565b600061167d8484610f69565b90507fffffffffffffffffffffffffffffffffffffffffffffffffffffffffffffffff81146116f757818110156116e9576040517f08c379a00000000000000000000000000000000000000000000000000000000081526004016116e090613d61565b60405180910390fd5b6116f684848484036114a8565b5b50505050565b600073ffffffffffffffffffffffffffffffffffffffff168373ffffffffffffffffffffffffffffffffffffffff160361176c576040517f08c379a000000000000000000000000000000000000000000000000000000000815260040161176390613df3565b60405180910390fd5b600073ffffffffffffffffffffffffffffffffffffffff168273ffffffffffffffffffffffffffffffffffffffff16036117db576040517f08c379a00000000000000000000000000000000000000000000000000000000081526004016117d290613e85565b60405180910390fd5b6117e6838383612154565b60008060008573ffffffffffffffffffffffffffffffffffffffff1673ffffffffffffffffffffffffffffffffffffffff1681526020019081526020016000205490508181101561186c576040517f08c379a000000000000000000000000000000000000000000000000000000000815260040161186390613f17565b60405180910390fd5b8181036000808673ffffffffffffffffffffffffffffffffffffffff1673ffffffffffffffffffffffffffffffffffffffff16815260200190815260200160002081905550816000808573ffffffffffffffffffffffffffffffffffffffff1673ffffffffffffffffffffffffffffffffffffffff168152602001908152602001600020600082825401925050819055508273ffffffffffffffffffffffffffffffffffffffff168473ffffffffffffffffffffffffffffffffffffffff167fddf252ad1be2c89b69c2b068fc378daa952ba7f163c4a11628f55a4df523b3ef8460405161195a9190612b97565b60405180910390a361196d848484612159565b50505050565b60007f000000000000000000000000000000000000000000000000000000000000000073ffffffffffffffffffffffffffffffffffffffff163073ffffffffffffffffffffffffffffffffffffffff161480156119ef57507f000000000000000000000000000000000000000000000000000000000000000046145b15611a1c577f00000000000000000000000000000000000000000000000000000000000000009050611a27565b611a24612362565b90505b90565b600080838054905090506000808290506005831115611aa0576000611a4e846123f8565b84611a599190613bbd565b905085611a6688836124f1565b60000160009054906101000a900463ffffffff1663ffffffff161115611a8e57809150611a9e565b600181611a9b9190613239565b92505b505b5b80821015611b00576000611ab58383612506565b905085611ac288836124f1565b60000160009054906101000a900463ffffffff1663ffffffff161115611aea57809150611afa565b600181611af79190613239565b92505b50611aa1565b60008114611b4657611b1586600183036124f1565b60000160049054906101000a90047bffffffffffffffffffffffffffffffffffffffffffffffffffffffff16611b49565b60005b7bffffffffffffffffffffffffffffffffffffffffffffffffffffffff16935050505092915050565b6000611b7d83610809565b90506000611b8a846108e0565b905082600960008673ffffffffffffffffffffffffffffffffffffffff1673ffffffffffffffffffffffffffffffffffffffff16815260200190815260200160002060006101000a81548173ffffffffffffffffffffffffffffffffffffffff021916908373ffffffffffffffffffffffffffffffffffffffff1602179055508273ffffffffffffffffffffffffffffffffffffffff168273ffffffffffffffffffffffffffffffffffffffff168573ffffffffffffffffffffffffffffffffffffffff167f3134e8a2e6d97e929a7e54011ea5485d7d196dd5f0ba4d4ef95803e8e3fc257f60405160405180910390a4611c86828483612169565b50505050565b600081600001549050919050565b606060ff60001b8314611cb757611cb08361252c565b9050611d44565b818054611cc3906131d9565b80601f0160208091040260200160405190810160405280929190818152602001828054611cef906131d9565b8015611d3c5780601f10611d1157610100808354040283529160200191611d3c565b820191906000526020600020905b815481529060010190602001808311611d1f57829003601f168201915b505050505090505b92915050565b6000611d5d611d57611973565b836125a0565b9050919050565b6000806000611d75878787876125e1565b91509150611d82816126c3565b8192505050949350505050565b600080600760008473ffffffffffffffffffffffffffffffffffffffff1673ffffffffffffffffffffffffffffffffffffffff1681526020019081526020016000209050611ddc81611c8c565b9150611de781612829565b50919050565b600080829050601f81511115611e3a57826040517f305a27a9000000000000000000000000000000000000000000000000000000008152600401611e319190612a57565b60405180910390fd5b805181611e4690613f67565b60001c1760001b915050919050565b60007bffffffffffffffffffffffffffffffffffffffffffffffffffffffff905090565b6000806000858054905090506000808214611f3f57611e9b87600184036124f1565b6040518060400160405290816000820160009054906101000a900463ffffffff1663ffffffff1663ffffffff1681526020016000820160049054906101000a90047bffffffffffffffffffffffffffffffffffffffffffffffffffffffff167bffffffffffffffffffffffffffffffffffffffffffffffffffffffff167bffffffffffffffffffffffffffffffffffffffffffffffffffffffff1681525050611f7b565b6040518060400160405280600063ffffffff16815260200160007bffffffffffffffffffffffffffffffffffffffffffffffffffffffff168152505b905080602001517bffffffffffffffffffffffffffffffffffffffffffffffffffffffff169350611fb084868863ffffffff16565b9250600082118015611fda5750611fc5610adf565b65ffffffffffff16816000015163ffffffff16145b1561204b57611fe883611347565b611ff588600185036124f1565b60000160046101000a8154817bffffffffffffffffffffffffffffffffffffffffffffffffffffffff02191690837bffffffffffffffffffffffffffffffffffffffffffffffffffffffff16021790555061214a565b86604051806040016040528061206f612062610adf565b65ffffffffffff166113b2565b63ffffffff16815260200161208386611347565b7bffffffffffffffffffffffffffffffffffffffffffffffffffffffff168152509080600181540180825580915050600190039060005260206000200160009091909190915060008201518160000160006101000a81548163ffffffff021916908363ffffffff16021790555060208201518160000160046101000a8154817bffffffffffffffffffffffffffffffffffffffffffffffffffffffff02191690837bffffffffffffffffffffffffffffffffffffffffffffffffffffffff16021790555050505b5050935093915050565b505050565b612164838383611405565b505050565b8173ffffffffffffffffffffffffffffffffffffffff168373ffffffffffffffffffffffffffffffffffffffff16141580156121a55750600081115b1561235d57600073ffffffffffffffffffffffffffffffffffffffff168373ffffffffffffffffffffffffffffffffffffffff16146122835760008061222c600a60008773ffffffffffffffffffffffffffffffffffffffff1673ffffffffffffffffffffffffffffffffffffffff16815260200190815260200160002061148a85611e79565b915091508473ffffffffffffffffffffffffffffffffffffffff167fdec2bacdd2f05b59de34da9b523dff8be42e5e38e818c82fdb0bae774387a7248383604051612278929190613fce565b60405180910390a250505b600073ffffffffffffffffffffffffffffffffffffffff168273ffffffffffffffffffffffffffffffffffffffff161461235c57600080612305600a60008673ffffffffffffffffffffffffffffffffffffffff1673ffffffffffffffffffffffffffffffffffffffff16815260200190815260200160002061133185611e79565b915091508373ffffffffffffffffffffffffffffffffffffffff167fdec2bacdd2f05b59de34da9b523dff8be42e5e38e818c82fdb0bae774387a7248383604051612351929190613fce565b60405180910390a250505b5b505050565b60007f8b73c3c69bb8fe3d512ecc4cf759cc79239f7b179b0ffacaa9a75d522b39400f7f00000000000000000000000000000000000000000000000000000000000000007f000000000000000000000000000000000000000000000000000000000000000046306040516020016123dd959493929190613ff7565b60405160208183030381529060405280519060200120905090565b600080820361240a57600090506124ec565b600060016124178461283f565b901c6001901b905060018184816124315761243061404a565b5b048201901c9050600181848161244a5761244961404a565b5b048201901c905060018184816124635761246261404a565b5b048201901c9050600181848161247c5761247b61404a565b5b048201901c905060018184816124955761249461404a565b5b048201901c905060018184816124ae576124ad61404a565b5b048201901c905060018184816124c7576124c661404a565b5b048201901c90506124e8818285816124e2576124e161404a565b5b04612920565b9150505b919050565b60008260005281602060002001905092915050565b600060028284186125179190614079565b8284166125249190613239565b905092915050565b6060600061253983612939565b90506000602067ffffffffffffffff81111561255857612557613345565b5b6040519080825280601f01601f19166020018201604052801561258a5781602001600182028036833780820191505090505b5090508181528360208201528092505050919050565b60006040517f190100000000000000000000000000000000000000000000000000000000000081528360028201528260228201526042812091505092915050565b6000807f7fffffffffffffffffffffffffffffff5d576e7357a4501ddfe92f46681b20a08360001c111561261c5760006003915091506126ba565b60006001878787876040516000815260200160405260405161264194939291906140aa565b6020604051602081039080840390855afa158015612663573d6000803e3d6000fd5b505050602060405103519050600073ffffffffffffffffffffffffffffffffffffffff168173ffffffffffffffffffffffffffffffffffffffff16036126b1576000600192509250506126ba565b80600092509250505b94509492505050565b600060048111156126d7576126d66140ef565b5b8160048111156126ea576126e96140ef565b5b03156128265760016004811115612704576127036140ef565b5b816004811115612717576127166140ef565b5b03612757576040517f08c379a000000000000000000000000000000000000000000000000000000000815260040161274e9061416a565b60405180910390fd5b6002600481111561276b5761276a6140ef565b5b81600481111561277e5761277d6140ef565b5b036127be576040517f08c379a00000000000000000000000000000000000000000000000000000000081526004016127b5906141d6565b60405180910390fd5b600360048111156127d2576127d16140ef565b5b8160048111156127e5576127e46140ef565b5b03612825576040517f08c379a000000000000000000000000000000000000000000000000000000000815260040161281c90614268565b60405180910390fd5b5b50565b6001816000016000828254019250508190555050565b600080600090506000608084901c111561286157608083901c92506080810190505b6000604084901c111561287c57604083901c92506040810190505b6000602084901c111561289757602083901c92506020810190505b6000601084901c11156128b257601083901c92506010810190505b6000600884901c11156128cd57600883901c92506008810190505b6000600484901c11156128e857600483901c92506004810190505b6000600284901c111561290357600283901c92506002810190505b6000600184901c1115612917576001810190505b80915050919050565b600081831061292f5781612931565b825b905092915050565b60008060ff8360001c169050601f811115612980576040517fb3512b0c00000000000000000000000000000000000000000000000000000000815260040160405180910390fd5b80915050919050565b6040518060400160405280600063ffffffff16815260200160007bffffffffffffffffffffffffffffffffffffffffffffffffffffffff1681525090565b600081519050919050565b600082825260208201905092915050565b60005b83811015612a015780820151818401526020810190506129e6565b60008484015250505050565b6000601f19601f8301169050919050565b6000612a29826129c7565b612a3381856129d2565b9350612a438185602086016129e3565b612a4c81612a0d565b840191505092915050565b60006020820190508181036000830152612a718184612a1e565b905092915050565b600080fd5b600073ffffffffffffffffffffffffffffffffffffffff82169050919050565b6000612aa982612a7e565b9050919050565b612ab981612a9e565b8114612ac457600080fd5b50565b600081359050612ad681612ab0565b92915050565b6000819050919050565b612aef81612adc565b8114612afa57600080fd5b50565b600081359050612b0c81612ae6565b92915050565b60008060408385031215612b2957612b28612a79565b5b6000612b3785828601612ac7565b9250506020612b4885828601612afd565b9150509250929050565b60008115159050919050565b612b6781612b52565b82525050565b6000602082019050612b826000830184612b5e565b92915050565b612b9181612adc565b82525050565b6000602082019050612bac6000830184612b88565b92915050565b600080600060608486031215612bcb57612bca612a79565b5b6000612bd986828701612ac7565b9350506020612bea86828701612ac7565b9250506040612bfb86828701612afd565b9150509250925092565b600060ff82169050919050565b612c1b81612c05565b82525050565b6000602082019050612c366000830184612c12565b92915050565b6000819050919050565b612c4f81612c3c565b82525050565b6000602082019050612c6a6000830184612c46565b92915050565b600060208284031215612c8657612c85612a79565b5b6000612c9484828501612ac7565b91505092915050565b612ca681612a9e565b82525050565b6000602082019050612cc16000830184612c9d565b92915050565b600063ffffffff82169050919050565b612ce081612cc7565b82525050565b6000602082019050612cfb6000830184612cd7565b92915050565b60007fff0000000000000000000000000000000000000000000000000000000000000082169050919050565b612d3681612d01565b82525050565b600081519050919050565b600082825260208201905092915050565b6000819050602082019050919050565b612d7181612adc565b82525050565b6000612d838383612d68565b60208301905092915050565b6000602082019050919050565b6000612da782612d3c565b612db18185612d47565b9350612dbc83612d58565b8060005b83811015612ded578151612dd48882612d77565b9750612ddf83612d8f565b925050600181019050612dc0565b5085935050505092915050565b600060e082019050612e0f600083018a612d2d565b8181036020830152612e218189612a1e565b90508181036040830152612e358188612a1e565b9050612e446060830187612b88565b612e516080830186612c9d565b612e5e60a0830185612c46565b81810360c0830152612e708184612d9c565b905098975050505050505050565b600060208284031215612e9457612e93612a79565b5b6000612ea284828501612afd565b91505092915050565b600065ffffffffffff82169050919050565b612ec681612eab565b82525050565b6000602082019050612ee16000830184612ebd565b92915050565b612ef081612c05565b8114612efb57600080fd5b50565b600081359050612f0d81612ee7565b92915050565b612f1c81612c3c565b8114612f2757600080fd5b50565b600081359050612f3981612f13565b92915050565b60008060008060008060c08789031215612f5c57612f5b612a79565b5b6000612f6a89828a01612ac7565b9650506020612f7b89828a01612afd565b9550506040612f8c89828a01612afd565b9450506060612f9d89828a01612efe565b9350506080612fae89828a01612f2a565b92505060a0612fbf89828a01612f2a565b9150509295509295509295565b600080600080600080600060e0888a031215612feb57612fea612a79565b5b6000612ff98a828b01612ac7565b975050602061300a8a828b01612ac7565b965050604061301b8a828b01612afd565b955050606061302c8a828b01612afd565b945050608061303d8a828b01612efe565b93505060a061304e8a828b01612f2a565b92505060c061305f8a828b01612f2a565b91505092959891949750929550565b6000806040838503121561308557613084612a79565b5b600061309385828601612ac7565b92505060206130a485828601612ac7565b9150509250929050565b6130b781612cc7565b81146130c257600080fd5b50565b6000813590506130d4816130ae565b92915050565b600080604083850312156130f1576130f0612a79565b5b60006130ff85828601612ac7565b9250506020613110858286016130c5565b9150509250929050565b61312381612cc7565b82525050565b60007bffffffffffffffffffffffffffffffffffffffffffffffffffffffff82169050919050565b61315a81613129565b82525050565b604082016000820151613176600085018261311a565b5060208201516131896020850182613151565b50505050565b60006040820190506131a46000830184613160565b92915050565b7f4e487b7100000000000000000000000000000000000000000000000000000000600052602260045260246000fd5b600060028204905060018216806131f157607f821691505b602082108103613204576132036131aa565b5b50919050565b7f4e487b7100000000000000000000000000000000000000000000000000000000600052601160045260246000fd5b600061324482612adc565b915061324f83612adc565b92508282019050808211156132675761326661320a565b5b92915050565b7f4552433230566f7465733a20667574757265206c6f6f6b757000000000000000600082015250565b60006132a36019836129d2565b91506132ae8261326d565b602082019050919050565b600060208201905081810360008301526132d281613296565b9050919050565b7f4552433230566f7465733a2062726f6b656e20636c6f636b206d6f6465000000600082015250565b600061330f601d836129d2565b915061331a826132d9565b602082019050919050565b6000602082019050818103600083015261333e81613302565b9050919050565b7f4e487b7100000000000000000000000000000000000000000000000000000000600052604160045260246000fd5b7f4e487b7100000000000000000000000000000000000000000000000000000000600052603260045260246000fd5b7f45524332303a2064656372656173656420616c6c6f77616e63652062656c6f7760008201527f207a65726f000000000000000000000000000000000000000000000000000000602082015250565b60006133ff6025836129d2565b915061340a826133a3565b604082019050919050565b6000602082019050818103600083015261342e816133f2565b9050919050565b7f4552433230566f7465733a207369676e61747572652065787069726564000000600082015250565b600061346b601d836129d2565b915061347682613435565b602082019050919050565b6000602082019050818103600083015261349a8161345e565b9050919050565b60006080820190506134b66000830187612c46565b6134c36020830186612c9d565b6134d06040830185612b88565b6134dd6060830184612b88565b95945050505050565b7f4552433230566f7465733a20696e76616c6964206e6f6e636500000000000000600082015250565b600061351c6019836129d2565b9150613527826134e6565b602082019050919050565b6000602082019050818103600083015261354b8161350f565b9050919050565b7f45524332305065726d69743a206578706972656420646561646c696e65000000600082015250565b6000613588601d836129d2565b915061359382613552565b602082019050919050565b600060208201905081810360008301526135b78161357b565b9050919050565b600060c0820190506135d36000830189612c46565b6135e06020830188612c9d565b6135ed6040830187612c9d565b6135fa6060830186612b88565b6136076080830185612b88565b61361460a0830184612b88565b979650505050505050565b7f45524332305065726d69743a20696e76616c6964207369676e61747572650000600082015250565b6000613655601e836129d2565b91506136608261361f565b602082019050919050565b6000602082019050818103600083015261368481613648565b9050919050565b60008190508160005260206000209050919050565b60006020601f8301049050919050565b600082821b905092915050565b6000600883026136ed7fffffffffffffffffffffffffffffffffffffffffffffffffffffffffffffffff826136b0565b6136f786836136b0565b95508019841693508086168417925050509392505050565b6000819050919050565b600061373461372f61372a84612adc565b61370f565b612adc565b9050919050565b6000819050919050565b61374e83613719565b61376261375a8261373b565b8484546136bd565b825550505050565b600090565b61377761376a565b613782818484613745565b505050565b5b818110156137a65761379b60008261376f565b600181019050613788565b5050565b601f8211156137eb576137bc8161368b565b6137c5846136a0565b810160208510156137d4578190505b6137e86137e0856136a0565b830182613787565b50505b505050565b600082821c905092915050565b600061380e600019846008026137f0565b1980831691505092915050565b600061382783836137fd565b9150826002028217905092915050565b613840826129c7565b67ffffffffffffffff81111561385957613858613345565b5b61386382546131d9565b61386e8282856137aa565b600060209050601f8311600181146138a1576000841561388f578287015190505b613899858261381b565b865550613901565b601f1984166138af8661368b565b60005b828110156138d7578489015182556001820191506020850194506020810190506138b2565b868310156138f457848901516138f0601f8916826137fd565b8355505b6001600288020188555050505b505050505050565b7f4552433230566f7465733a20746f74616c20737570706c79207269736b73206f60008201527f766572666c6f77696e6720766f74657300000000000000000000000000000000602082015250565b60006139656030836129d2565b915061397082613909565b604082019050919050565b6000602082019050818103600083015261399481613958565b9050919050565b7f45524332303a206d696e7420746f20746865207a65726f206164647265737300600082015250565b60006139d1601f836129d2565b91506139dc8261399b565b602082019050919050565b60006020820190508181036000830152613a00816139c4565b9050919050565b7f53616665436173743a2076616c756520646f65736e27742066697420696e203260008201527f3234206269747300000000000000000000000000000000000000000000000000602082015250565b6000613a636027836129d2565b9150613a6e82613a07565b604082019050919050565b60006020820190508181036000830152613a9281613a56565b9050919050565b7f53616665436173743a2076616c756520646f65736e27742066697420696e203360008201527f3220626974730000000000000000000000000000000000000000000000000000602082015250565b6000613af56026836129d2565b9150613b0082613a99565b604082019050919050565b60006020820190508181036000830152613b2481613ae8565b9050919050565b7f53616665436173743a2076616c756520646f65736e27742066697420696e203460008201527f3820626974730000000000000000000000000000000000000000000000000000602082015250565b6000613b876026836129d2565b9150613b9282613b2b565b604082019050919050565b60006020820190508181036000830152613bb681613b7a565b9050919050565b6000613bc882612adc565b9150613bd383612adc565b9250828203905081811115613beb57613bea61320a565b5b92915050565b7f45524332303a20617070726f76652066726f6d20746865207a65726f2061646460008201527f7265737300000000000000000000000000000000000000000000000000000000602082015250565b6000613c4d6024836129d2565b9150613c5882613bf1565b604082019050919050565b60006020820190508181036000830152613c7c81613c40565b9050919050565b7f45524332303a20617070726f766520746f20746865207a65726f20616464726560008201527f7373000000000000000000000000000000000000000000000000000000000000602082015250565b6000613cdf6022836129d2565b9150613cea82613c83565b604082019050919050565b60006020820190508181036000830152613d0e81613cd2565b9050919050565b7f45524332303a20696e73756666696369656e7420616c6c6f77616e6365000000600082015250565b6000613d4b601d836129d2565b9150613d5682613d15565b602082019050919050565b60006020820190508181036000830152613d7a81613d3e565b9050919050565b7f45524332303a207472616e736665722066726f6d20746865207a65726f20616460008201527f6472657373000000000000000000000000000000000000000000000000000000602082015250565b6000613ddd6025836129d2565b9150613de882613d81565b604082019050919050565b60006020820190508181036000830152613e0c81613dd0565b9050919050565b7f45524332303a207472616e7366657220746f20746865207a65726f206164647260008201527f6573730000000000000000000000000000000000000000000000000000000000602082015250565b6000613e6f6023836129d2565b9150613e7a82613e13565b604082019050919050565b60006020820190508181036000830152613e9e81613e62565b9050919050565b7f45524332303a207472616e7366657220616d6f756e742065786365656473206260008201527f616c616e63650000000000000000000000000000000000000000000000000000602082015250565b6000613f016026836129d2565b9150613f0c82613ea5565b604082019050919050565b60006020820190508181036000830152613f3081613ef4565b9050919050565b600081519050919050565b6000819050602082019050919050565b6000613f5e8251612c3c565b80915050919050565b6000613f7282613f37565b82613f7c84613f42565b9050613f8781613f52565b92506020821015613fc757613fc27fffffffffffffffffffffffffffffffffffffffffffffffffffffffffffffffff836020036008026136b0565b831692505b5050919050565b6000604082019050613fe36000830185612b88565b613ff06020830184612b88565b9392505050565b600060a08201905061400c6000830188612c46565b6140196020830187612c46565b6140266040830186612c46565b6140336060830185612b88565b6140406080830184612c9d565b9695505050505050565b7f4e487b7100000000000000000000000000000000000000000000000000000000600052601260045260246000fd5b600061408482612adc565b915061408f83612adc565b92508261409f5761409e61404a565b5b828204905092915050565b60006080820190506140bf6000830187612c46565b6140cc6020830186612c12565b6140d96040830185612c46565b6140e66060830184612c46565b95945050505050565b7f4e487b7100000000000000000000000000000000000000000000000000000000600052602160045260246000fd5b7f45434453413a20696e76616c6964207369676e61747572650000000000000000600082015250565b60006141546018836129d2565b915061415f8261411e565b602082019050919050565b6000602082019050818103600083015261418381614147565b9050919050565b7f45434453413a20696e76616c6964207369676e6174757265206c656e67746800600082015250565b60006141c0601f836129d2565b91506141cb8261418a565b602082019050919050565b600060208201905081810360008301526141ef816141b3565b9050919050565b7f45434453413a20696e76616c6964207369676e6174757265202773272076616c60008201527f7565000000000000000000000000000000000000000000000000000000000000602082015250565b60006142526022836129d2565b915061425d826141f6565b604082019050919050565b6000602082019050818103600083015261428181614245565b905091905056fea264697066735822122048e10d716872992fa91d3e0fafe89bb7f76908b1d73b760dafc16c2667e75d4f64736f6c63430008110033",
  "devdoc": {
    "kind": "dev",
    "methods": {
      "CLOCK_MODE()": {
        "details": "Description of the clock"
      },
      "DOMAIN_SEPARATOR()": {
        "details": "See {IERC20Permit-DOMAIN_SEPARATOR}."
      },
      "allowance(address,address)": {
        "details": "See {IERC20-allowance}."
      },
      "approve(address,uint256)": {
        "details": "See {IERC20-approve}. NOTE: If `amount` is the maximum `uint256`, the allowance is not updated on `transferFrom`. This is semantically equivalent to an infinite approval. Requirements: - `spender` cannot be the zero address."
      },
      "balanceOf(address)": {
        "details": "See {IERC20-balanceOf}."
      },
      "checkpoints(address,uint32)": {
        "details": "Get the `pos`-th checkpoint for `account`."
      },
      "clock()": {
        "details": "Clock used for flagging checkpoints. Can be overridden to implement timestamp based checkpoints (and voting)."
      },
      "decimals()": {
        "details": "Returns the number of decimals used to get its user representation. For example, if `decimals` equals `2`, a balance of `505` tokens should be displayed to a user as `5.05` (`505 / 10 ** 2`). Tokens usually opt for a value of 18, imitating the relationship between Ether and Wei. This is the default value returned by this function, unless it's overridden. NOTE: This information is only used for _display_ purposes: it in no way affects any of the arithmetic of the contract, including {IERC20-balanceOf} and {IERC20-transfer}."
      },
      "decreaseAllowance(address,uint256)": {
        "details": "Atomically decreases the allowance granted to `spender` by the caller. This is an alternative to {approve} that can be used as a mitigation for problems described in {IERC20-approve}. Emits an {Approval} event indicating the updated allowance. Requirements: - `spender` cannot be the zero address. - `spender` must have allowance for the caller of at least `subtractedValue`."
      },
      "delegate(address)": {
        "details": "Delegate votes from the sender to `delegatee`."
      },
      "delegateBySig(address,uint256,uint256,uint8,bytes32,bytes32)": {
        "details": "Delegates votes from signer to `delegatee`"
      },
      "delegates(address)": {
        "details": "Get the address `account` is currently delegating to."
      },
      "eip712Domain()": {
        "details": "See {EIP-5267}. _Available since v4.9._"
      },
      "getPastTotalSupply(uint256)": {
        "details": "Retrieve the `totalSupply` at the end of `timepoint`. Note, this value is the sum of all balances. It is NOT the sum of all the delegated votes! Requirements: - `timepoint` must be in the past"
      },
      "getPastVotes(address,uint256)": {
        "details": "Retrieve the number of votes for `account` at the end of `timepoint`. Requirements: - `timepoint` must be in the past"
      },
      "getVotes(address)": {
        "details": "Gets the current votes balance for `account`"
      },
      "increaseAllowance(address,uint256)": {
        "details": "Atomically increases the allowance granted to `spender` by the caller. This is an alternative to {approve} that can be used as a mitigation for problems described in {IERC20-approve}. Emits an {Approval} event indicating the updated allowance. Requirements: - `spender` cannot be the zero address."
      },
      "name()": {
        "details": "Returns the name of the token."
      },
      "nonces(address)": {
        "details": "See {IERC20Permit-nonces}."
      },
      "numCheckpoints(address)": {
        "details": "Get number of checkpoints for `account`."
      },
      "permit(address,address,uint256,uint256,uint8,bytes32,bytes32)": {
        "details": "See {IERC20Permit-permit}."
      },
      "symbol()": {
        "details": "Returns the symbol of the token, usually a shorter version of the name."
      },
      "totalSupply()": {
        "details": "See {IERC20-totalSupply}."
      },
      "transfer(address,uint256)": {
        "details": "See {IERC20-transfer}. Requirements: - `to` cannot be the zero address. - the caller must have a balance of at least `amount`."
      },
      "transferFrom(address,address,uint256)": {
        "details": "See {IERC20-transferFrom}. Emits an {Approval} event indicating the updated allowance. This is not required by the EIP. See the note at the beginning of {ERC20}. NOTE: Does not update the allowance if the current allowance is the maximum `uint256`. Requirements: - `from` and `to` cannot be the zero address. - `from` must have a balance of at least `amount`. - the caller must have allowance for ``from``'s tokens of at least `amount`."
      }
    },
    "version": 1
  },
  "userdoc": {
    "kind": "user",
    "methods": {},
    "version": 1
  },
  "storageLayout": {
    "storage": [
      {
        "astId": 142,
        "contract": "contracts/GovernanceToken.sol:GovernanceToken",
        "label": "_balances",
        "offset": 0,
        "slot": "0",
        "type": "t_mapping(t_address,t_uint256)"
      },
      {
        "astId": 148,
        "contract": "contracts/GovernanceToken.sol:GovernanceToken",
        "label": "_allowances",
        "offset": 0,
        "slot": "1",
        "type": "t_mapping(t_address,t_mapping(t_address,t_uint256))"
      },
      {
        "astId": 150,
        "contract": "contracts/GovernanceToken.sol:GovernanceToken",
        "label": "_totalSupply",
        "offset": 0,
        "slot": "2",
        "type": "t_uint256"
      },
      {
        "astId": 152,
        "contract": "contracts/GovernanceToken.sol:GovernanceToken",
        "label": "_name",
        "offset": 0,
        "slot": "3",
        "type": "t_string_storage"
      },
      {
        "astId": 154,
        "contract": "contracts/GovernanceToken.sol:GovernanceToken",
        "label": "_symbol",
        "offset": 0,
        "slot": "4",
        "type": "t_string_storage"
      },
      {
        "astId": 2808,
        "contract": "contracts/GovernanceToken.sol:GovernanceToken",
        "label": "_nameFallback",
        "offset": 0,
        "slot": "5",
        "type": "t_string_storage"
      },
      {
        "astId": 2810,
        "contract": "contracts/GovernanceToken.sol:GovernanceToken",
        "label": "_versionFallback",
        "offset": 0,
        "slot": "6",
        "type": "t_string_storage"
      },
      {
        "astId": 814,
        "contract": "contracts/GovernanceToken.sol:GovernanceToken",
        "label": "_nonces",
        "offset": 0,
        "slot": "7",
        "type": "t_mapping(t_address,t_struct(Counter)1786_storage)"
      },
      {
        "astId": 822,
        "contract": "contracts/GovernanceToken.sol:GovernanceToken",
        "label": "_PERMIT_TYPEHASH_DEPRECATED_SLOT",
        "offset": 0,
        "slot": "8",
        "type": "t_bytes32"
      },
      {
        "astId": 989,
        "contract": "contracts/GovernanceToken.sol:GovernanceToken",
        "label": "_delegates",
        "offset": 0,
        "slot": "9",
        "type": "t_mapping(t_address,t_address)"
      },
      {
        "astId": 995,
        "contract": "contracts/GovernanceToken.sol:GovernanceToken",
        "label": "_checkpoints",
        "offset": 0,
        "slot": "10",
        "type": "t_mapping(t_address,t_array(t_struct(Checkpoint)980_storage)dyn_storage)"
      },
      {
        "astId": 999,
        "contract": "contracts/GovernanceToken.sol:GovernanceToken",
        "label": "_totalSupplyCheckpoints",
        "offset": 0,
        "slot": "11",
        "type": "t_array(t_struct(Checkpoint)980_storage)dyn_storage"
      },
      {
        "astId": 5498,
        "contract": "contracts/GovernanceToken.sol:GovernanceToken",
        "label": "s_maxSupply",
        "offset": 0,
        "slot": "12",
        "type": "t_uint256"
      }
    ],
    "types": {
      "t_address": {
        "encoding": "inplace",
        "label": "address",
        "numberOfBytes": "20"
      },
      "t_array(t_struct(Checkpoint)980_storage)dyn_storage": {
        "base": "t_struct(Checkpoint)980_storage",
        "encoding": "dynamic_array",
        "label": "struct ERC20Votes.Checkpoint[]",
        "numberOfBytes": "32"
      },
      "t_bytes32": {
        "encoding": "inplace",
        "label": "bytes32",
        "numberOfBytes": "32"
      },
      "t_mapping(t_address,t_address)": {
        "encoding": "mapping",
        "key": "t_address",
        "label": "mapping(address => address)",
        "numberOfBytes": "32",
        "value": "t_address"
      },
      "t_mapping(t_address,t_array(t_struct(Checkpoint)980_storage)dyn_storage)": {
        "encoding": "mapping",
        "key": "t_address",
        "label": "mapping(address => struct ERC20Votes.Checkpoint[])",
        "numberOfBytes": "32",
        "value": "t_array(t_struct(Checkpoint)980_storage)dyn_storage"
      },
      "t_mapping(t_address,t_mapping(t_address,t_uint256))": {
        "encoding": "mapping",
        "key": "t_address",
        "label": "mapping(address => mapping(address => uint256))",
        "numberOfBytes": "32",
        "value": "t_mapping(t_address,t_uint256)"
      },
      "t_mapping(t_address,t_struct(Counter)1786_storage)": {
        "encoding": "mapping",
        "key": "t_address",
        "label": "mapping(address => struct Counters.Counter)",
        "numberOfBytes": "32",
        "value": "t_struct(Counter)1786_storage"
      },
      "t_mapping(t_address,t_uint256)": {
        "encoding": "mapping",
        "key": "t_address",
        "label": "mapping(address => uint256)",
        "numberOfBytes": "32",
        "value": "t_uint256"
      },
      "t_string_storage": {
        "encoding": "bytes",
        "label": "string",
        "numberOfBytes": "32"
      },
      "t_struct(Checkpoint)980_storage": {
        "encoding": "inplace",
        "label": "struct ERC20Votes.Checkpoint",
        "members": [
          {
            "astId": 977,
            "contract": "contracts/GovernanceToken.sol:GovernanceToken",
            "label": "fromBlock",
            "offset": 0,
            "slot": "0",
            "type": "t_uint32"
          },
          {
            "astId": 979,
            "contract": "contracts/GovernanceToken.sol:GovernanceToken",
            "label": "votes",
            "offset": 4,
            "slot": "0",
            "type": "t_uint224"
          }
        ],
        "numberOfBytes": "32"
      },
      "t_struct(Counter)1786_storage": {
        "encoding": "inplace",
        "label": "struct Counters.Counter",
        "members": [
          {
            "astId": 1785,
            "contract": "contracts/GovernanceToken.sol:GovernanceToken",
            "label": "_value",
            "offset": 0,
            "slot": "0",
            "type": "t_uint256"
          }
        ],
        "numberOfBytes": "32"
      },
      "t_uint224": {
        "encoding": "inplace",
        "label": "uint224",
        "numberOfBytes": "28"
      },
      "t_uint256": {
        "encoding": "inplace",
        "label": "uint256",
        "numberOfBytes": "32"
      },
      "t_uint32": {
        "encoding": "inplace",
        "label": "uint32",
        "numberOfBytes": "4"
      }
    }
  }
}