{
  "_format": "hh-sol-artifact-1",
  "contractName": "NFTixLaunchpad",
  "sourceName": "contracts/NFTixLaunchpad.sol",
  "abi": [
    {
      "inputs": [
        {
          "internalType": "address",
          "name": "BaseERC721",
          "type": "address"
        },
        {
          "internalType": "address",
          "name": "defaultPlatformAdmin_",
          "type": "address"
        }
      ],
      "stateMutability": "nonpayable",
      "type": "constructor"
    },
    {
      "inputs": [],
      "name": "FallbackDisabled",
      "type": "error"
    },
    {
      "inputs": [],
      "name": "ZeroAddress",
      "type": "error"
    },
    {
      "anonymous": false,
      "inputs": [
        {
          "indexed": true,
          "internalType": "address",
          "name": "ERC721Base",
          "type": "address"
        }
      ],
      "name": "ImplementationERC721Changed",
      "type": "event"
    },
    {
      "anonymous": false,
      "inputs": [
        {
          "indexed": true,
          "internalType": "address",
          "name": "_newClone",
          "type": "address"
        },
        {
          "indexed": true,
          "internalType": "address",
          "name": "_owner",
          "type": "address"
        }
      ],
      "name": "NewClone",
      "type": "event"
    },
    {
      "anonymous": false,
      "inputs": [
        {
          "indexed": true,
          "internalType": "address",
          "name": "previousOwner",
          "type": "address"
        },
        {
          "indexed": true,
          "internalType": "address",
          "name": "newOwner",
          "type": "address"
        }
      ],
      "name": "OwnershipTransferred",
      "type": "event"
    },
    {
      "stateMutability": "payable",
      "type": "fallback"
    },
    {
      "inputs": [],
      "name": "Base",
      "outputs": [
        {
          "internalType": "address",
          "name": "",
          "type": "address"
        }
      ],
      "stateMutability": "view",
      "type": "function"
    },
    {
      "inputs": [
        {
          "internalType": "address",
          "name": "_newDefaultAdminAddress",
          "type": "address"
        }
      ],
      "name": "changeDefaultPlatformAdmin",
      "outputs": [],
      "stateMutability": "nonpayable",
      "type": "function"
    },
    {
      "inputs": [
        {
          "internalType": "address",
          "name": "_newAddress",
          "type": "address"
        }
      ],
      "name": "changeERC721Implementation",
      "outputs": [],
      "stateMutability": "nonpayable",
      "type": "function"
    },
    {
      "inputs": [
        {
          "internalType": "uint256",
          "name": "",
          "type": "uint256"
        }
      ],
      "name": "clones",
      "outputs": [
        {
          "internalType": "address",
          "name": "",
          "type": "address"
        }
      ],
      "stateMutability": "view",
      "type": "function"
    },
    {
      "inputs": [
        {
          "internalType": "string",
          "name": "_name",
          "type": "string"
        },
        {
          "internalType": "string",
          "name": "_symbol",
          "type": "string"
        },
        {
          "internalType": "string",
          "name": "_uri",
          "type": "string"
        },
        {
          "internalType": "uint256[]",
          "name": "_ticketPrices",
          "type": "uint256[]"
        },
        {
          "internalType": "uint256[]",
          "name": "_ticketRanges",
          "type": "uint256[]"
        },
        {
          "internalType": "address[]",
          "name": "_payees",
          "type": "address[]"
        },
        {
          "internalType": "uint256[]",
          "name": "_shares",
          "type": "uint256[]"
        },
        {
          "internalType": "address",
          "name": "owner",
          "type": "address"
        },
        {
          "internalType": "uint32",
          "name": "mintingLimit",
          "type": "uint32"
        },
        {
          "internalType": "bytes32",
          "name": "_root",
          "type": "bytes32"
        }
      ],
      "name": "createERC721",
      "outputs": [
        {
          "internalType": "address",
          "name": "",
          "type": "address"
        }
      ],
      "stateMutability": "nonpayable",
      "type": "function"
    },
    {
      "inputs": [],
      "name": "defaultPlatformAdmin",
      "outputs": [
        {
          "internalType": "address",
          "name": "",
          "type": "address"
        }
      ],
      "stateMutability": "view",
      "type": "function"
    },
    {
      "inputs": [],
      "name": "owner",
      "outputs": [
        {
          "internalType": "address",
          "name": "",
          "type": "address"
        }
      ],
      "stateMutability": "view",
      "type": "function"
    },
    {
      "inputs": [],
      "name": "renounceOwnership",
      "outputs": [],
      "stateMutability": "nonpayable",
      "type": "function"
    },
    {
      "inputs": [
        {
          "internalType": "bytes4",
          "name": "interfaceId",
          "type": "bytes4"
        }
      ],
      "name": "supportsInterface",
      "outputs": [
        {
          "internalType": "bool",
          "name": "",
          "type": "bool"
        }
      ],
      "stateMutability": "view",
      "type": "function"
    },
    {
      "inputs": [
        {
          "internalType": "address",
          "name": "newOwner",
          "type": "address"
        }
      ],
      "name": "transferOwnership",
      "outputs": [],
      "stateMutability": "nonpayable",
      "type": "function"
    },
    {
      "stateMutability": "payable",
      "type": "receive"
    }
  ],
  "bytecode": "0x60806040523480156200001157600080fd5b50604051620010da380380620010da8339810160408190526200003491620001c8565b6200003f33620000e8565b60018081905550620000636389578fe760e01b6200013860201b620006f01760201c565b6001600160a01b0382166200008b5760405163d92e233d60e01b815260040160405180910390fd5b6001600160a01b038116620000b35760405163d92e233d60e01b815260040160405180910390fd5b600480546001600160a01b039283166001600160a01b0319918216179091556002805493909216921691909117905562000200565b600080546001600160a01b038381166001600160a01b0319831681178455604051919092169283917f8be0079c531659141344cd1fd0a4f28419497f9722a3daafe3b4186f6b6457e09190a35050565b6040516001600160e01b031982166024820152620001879060440160408051601f198184030181529190526020810180516001600160e01b0390811663e05f48d160e01b179091526200018a16565b50565b80516a636f6e736f6c652e6c6f67602083016000808483855afa5050505050565b80516001600160a01b0381168114620001c357600080fd5b919050565b60008060408385031215620001dc57600080fd5b620001e783620001ab565b9150620001f760208401620001ab565b90509250929050565b610eca80620002106000396000f3fe6080604052600436106100b55760003560e01c806389578fe711610069578063a306b6e81161004e578063a306b6e814610220578063c7b5139114610240578063f2fde38b14610260576100ec565b806389578fe7146101e25780638da5cb5b14610202576100ec565b80632677b9941161009a5780632677b9941461018b5780635ea102b0146101ad578063715018a6146101cd576100ec565b806301ffc9a71461011e5780630e03991614610153576100ec565b366100ec576040517f687b764e00000000000000000000000000000000000000000000000000000000815260040160405180910390fd5b6040517f687b764e00000000000000000000000000000000000000000000000000000000815260040160405180910390fd5b34801561012a57600080fd5b5061013e610139366004610951565b610280565b60405190151581526020015b60405180910390f35b34801561015f57600080fd5b5061017361016e36600461099a565b610319565b6040516001600160a01b03909116815260200161014a565b34801561019757600080fd5b506101ab6101a63660046109ca565b610343565b005b3480156101b957600080fd5b50600254610173906001600160a01b031681565b3480156101d957600080fd5b506101ab6103f0565b3480156101ee57600080fd5b506101736101fd366004610bba565b610404565b34801561020e57600080fd5b506000546001600160a01b0316610173565b34801561022c57600080fd5b50600454610173906001600160a01b031681565b34801561024c57600080fd5b506101ab61025b3660046109ca565b61054d565b34801561026c57600080fd5b506101ab61027b3660046109ca565b610660565b60007fffffffff0000000000000000000000000000000000000000000000000000000082167f89578fe700000000000000000000000000000000000000000000000000000000148061031357507f01ffc9a7000000000000000000000000000000000000000000000000000000007fffffffff000000000000000000000000000000000000000000000000000000008316145b92915050565b6003818154811061032957600080fd5b6000918252602090912001546001600160a01b0316905081565b61034b61077f565b6001600160a01b03811615158061037057506004546001600160a01b03828116911614155b6103c15760405162461bcd60e51b815260206004820152601860248201527f41646d696e206164647265737320697320696e76616c6964000000000000000060448201526064015b60405180910390fd5b6004805473ffffffffffffffffffffffffffffffffffffffff19166001600160a01b0392909216919091179055565b6103f861077f565b61040260006107d9565b565b600061040e610836565b600254600090610426906001600160a01b031661088f565b9050806001600160a01b031663d3fe22398d8d8d8d8d8d8d600460009054906101000a90046001600160a01b03168e8e8e6040518c63ffffffff1660e01b815260040161047d9b9a99989796959493929190610dbc565b600060405180830381600087803b15801561049757600080fd5b505af11580156104ab573d6000803e3d6000fd5b50506003805460018101825560009182527fc2575a0e9e593c00f959f8c92f12db2869c3395a3b0502d05e2516446f71f85b01805473ffffffffffffffffffffffffffffffffffffffff19166001600160a01b0386169081179091556040513394509092507f3bf919a220a0f12ddcaf77fd06ffa4b9c728617774936f0d78b452010319c8249190a3905061053f60018055565b9a9950505050505050505050565b61055561077f565b6001600160a01b0381166105ab5760405162461bcd60e51b815260206004820152600e60248201527f496e76616c69644164647265737300000000000000000000000000000000000060448201526064016103b8565b6002546001600160a01b03908116908216036106095760405162461bcd60e51b815260206004820152601260248201527f53616d652061646472657373206572726f72000000000000000000000000000060448201526064016103b8565b6002805473ffffffffffffffffffffffffffffffffffffffff19166001600160a01b0383169081179091556040517fd04f10b610233a1d4a7c6405e91287680343094a50b8ff2ca0759a62fc07a86790600090a250565b61066861077f565b6001600160a01b0381166106e45760405162461bcd60e51b815260206004820152602660248201527f4f776e61626c653a206e6577206f776e657220697320746865207a65726f206160448201527f646472657373000000000000000000000000000000000000000000000000000060648201526084016103b8565b6106ed816107d9565b50565b6040517fffffffff00000000000000000000000000000000000000000000000000000000821660248201526106ed9060440160408051601f198184030181529190526020810180517bffffffffffffffffffffffffffffffffffffffffffffffffffffffff167fe05f48d100000000000000000000000000000000000000000000000000000000179052610930565b6000546001600160a01b031633146104025760405162461bcd60e51b815260206004820181905260248201527f4f776e61626c653a2063616c6c6572206973206e6f7420746865206f776e657260448201526064016103b8565b600080546001600160a01b0383811673ffffffffffffffffffffffffffffffffffffffff19831681178455604051919092169283917f8be0079c531659141344cd1fd0a4f28419497f9722a3daafe3b4186f6b6457e09190a35050565b6002600154036108885760405162461bcd60e51b815260206004820152601f60248201527f5265656e7472616e637947756172643a207265656e7472616e742063616c6c0060448201526064016103b8565b6002600155565b6000763d602d80600a3d3981f3363d3d373d3d3d363d730000008260601b60e81c176000526e5af43d82803e903d91602b57fd5bf38260781b17602052603760096000f090506001600160a01b03811661092b5760405162461bcd60e51b815260206004820152601660248201527f455243313136373a20637265617465206661696c65640000000000000000000060448201526064016103b8565b919050565b80516a636f6e736f6c652e6c6f67602083016000808483855afa5050505050565b60006020828403121561096357600080fd5b81357fffffffff000000000000000000000000000000000000000000000000000000008116811461099357600080fd5b9392505050565b6000602082840312156109ac57600080fd5b5035919050565b80356001600160a01b038116811461092b57600080fd5b6000602082840312156109dc57600080fd5b610993826109b3565b7f4e487b7100000000000000000000000000000000000000000000000000000000600052604160045260246000fd5b604051601f8201601f1916810167ffffffffffffffff81118282101715610a3d57610a3d6109e5565b604052919050565b600082601f830112610a5657600080fd5b813567ffffffffffffffff811115610a7057610a706109e5565b610a836020601f19601f84011601610a14565b818152846020838601011115610a9857600080fd5b816020850160208301376000918101602001919091529392505050565b600067ffffffffffffffff821115610acf57610acf6109e5565b5060051b60200190565b600082601f830112610aea57600080fd5b81356020610aff610afa83610ab5565b610a14565b82815260059290921b84018101918181019086841115610b1e57600080fd5b8286015b84811015610b395780358352918301918301610b22565b509695505050505050565b600082601f830112610b5557600080fd5b81356020610b65610afa83610ab5565b82815260059290921b84018101918181019086841115610b8457600080fd5b8286015b84811015610b3957610b99816109b3565b8352918301918301610b88565b803563ffffffff8116811461092b57600080fd5b6000806000806000806000806000806101408b8d031215610bda57600080fd5b8a3567ffffffffffffffff80821115610bf257600080fd5b610bfe8e838f01610a45565b9b5060208d0135915080821115610c1457600080fd5b610c208e838f01610a45565b9a5060408d0135915080821115610c3657600080fd5b610c428e838f01610a45565b995060608d0135915080821115610c5857600080fd5b610c648e838f01610ad9565b985060808d0135915080821115610c7a57600080fd5b610c868e838f01610ad9565b975060a08d0135915080821115610c9c57600080fd5b610ca88e838f01610b44565b965060c08d0135915080821115610cbe57600080fd5b50610ccb8d828e01610ad9565b945050610cda60e08c016109b3565b9250610ce96101008c01610ba6565b91506101208b013590509295989b9194979a5092959850565b6000815180845260005b81811015610d2857602081850181015186830182015201610d0c565b506000602082860101526020601f19601f83011685010191505092915050565b600081518084526020808501945080840160005b83811015610d7857815187529582019590820190600101610d5c565b509495945050505050565b600081518084526020808501945080840160005b83811015610d785781516001600160a01b031687529582019590820190600101610d97565b6000610160808352610dd08184018f610d02565b90508281036020840152610de4818e610d02565b90508281036040840152610df8818d610d02565b90508281036060840152610e0c818c610d48565b90508281036080840152610e20818b610d48565b905082810360a0840152610e34818a610d83565b905082810360c0840152610e488189610d48565b915050610e6060e08301876001600160a01b03169052565b6001600160a01b03851661010083015263ffffffff8416610120830152826101408301529c9b50505050505050505050505056fea2646970667358221220dcff1737ed0cb39113b2116449472f11d61eb0d6fbbe60b9baf853cbfdc01bb464736f6c63430008110033",
  "linkReferences": {},
  "deployedLinkReferences": {}
}