{
  "_format": "hh-sol-artifact-1",
  "contractName": "NFTixLaunchpad",
  "sourceName": "contracts/NFTixLaunchpad.sol",
  "abi": [
    {
      "inputs": [],
      "stateMutability": "nonpayable",
      "type": "constructor"
    },
    {
      "inputs": [],
      "name": "FallbackDisabled",
      "type": "error"
    },
    {
      "inputs": [],
      "name": "SameAddress",
      "type": "error"
    },
    {
      "inputs": [],
      "name": "ZeroAddress",
      "type": "error"
    },
    {
      "anonymous": false,
      "inputs": [
        {
          "indexed": true,
          "internalType": "address",
          "name": "ERC721Base",
          "type": "address"
        }
      ],
      "name": "ImplementationERC721Changed",
      "type": "event"
    },
    {
      "anonymous": false,
      "inputs": [
        {
          "indexed": false,
          "internalType": "uint8",
          "name": "version",
          "type": "uint8"
        }
      ],
      "name": "Initialized",
      "type": "event"
    },
    {
      "anonymous": false,
      "inputs": [
        {
          "indexed": true,
          "internalType": "address",
          "name": "_newClone",
          "type": "address"
        },
        {
          "indexed": true,
          "internalType": "address",
          "name": "_owner",
          "type": "address"
        }
      ],
      "name": "NewClone",
      "type": "event"
    },
    {
      "anonymous": false,
      "inputs": [
        {
          "indexed": true,
          "internalType": "address",
          "name": "previousOwner",
          "type": "address"
        },
        {
          "indexed": true,
          "internalType": "address",
          "name": "newOwner",
          "type": "address"
        }
      ],
      "name": "OwnershipTransferred",
      "type": "event"
    },
    {
      "anonymous": false,
      "inputs": [
        {
          "indexed": true,
          "internalType": "bytes32",
          "name": "role",
          "type": "bytes32"
        },
        {
          "indexed": true,
          "internalType": "bytes32",
          "name": "previousAdminRole",
          "type": "bytes32"
        },
        {
          "indexed": true,
          "internalType": "bytes32",
          "name": "newAdminRole",
          "type": "bytes32"
        }
      ],
      "name": "RoleAdminChanged",
      "type": "event"
    },
    {
      "anonymous": false,
      "inputs": [
        {
          "indexed": true,
          "internalType": "bytes32",
          "name": "role",
          "type": "bytes32"
        },
        {
          "indexed": true,
          "internalType": "address",
          "name": "account",
          "type": "address"
        },
        {
          "indexed": true,
          "internalType": "address",
          "name": "sender",
          "type": "address"
        }
      ],
      "name": "RoleGranted",
      "type": "event"
    },
    {
      "anonymous": false,
      "inputs": [
        {
          "indexed": true,
          "internalType": "bytes32",
          "name": "role",
          "type": "bytes32"
        },
        {
          "indexed": true,
          "internalType": "address",
          "name": "account",
          "type": "address"
        },
        {
          "indexed": true,
          "internalType": "address",
          "name": "sender",
          "type": "address"
        }
      ],
      "name": "RoleRevoked",
      "type": "event"
    },
    {
      "stateMutability": "payable",
      "type": "fallback"
    },
    {
      "inputs": [],
      "name": "Base",
      "outputs": [
        {
          "internalType": "address",
          "name": "",
          "type": "address"
        }
      ],
      "stateMutability": "view",
      "type": "function"
    },
    {
      "inputs": [],
      "name": "DEFAULT_ADMIN_ROLE",
      "outputs": [
        {
          "internalType": "bytes32",
          "name": "",
          "type": "bytes32"
        }
      ],
      "stateMutability": "view",
      "type": "function"
    },
    {
      "inputs": [
        {
          "internalType": "address",
          "name": "_newAddress",
          "type": "address"
        }
      ],
      "name": "changeERC721Implementation",
      "outputs": [],
      "stateMutability": "nonpayable",
      "type": "function"
    },
    {
      "inputs": [
        {
          "internalType": "uint256",
          "name": "",
          "type": "uint256"
        }
      ],
      "name": "clones",
      "outputs": [
        {
          "internalType": "address",
          "name": "",
          "type": "address"
        }
      ],
      "stateMutability": "view",
      "type": "function"
    },
    {
      "inputs": [
        {
          "internalType": "string",
          "name": "_name",
          "type": "string"
        },
        {
          "internalType": "string",
          "name": "_symbol",
          "type": "string"
        },
        {
          "internalType": "string",
          "name": "_uri",
          "type": "string"
        },
        {
          "internalType": "uint256[]",
          "name": "_ticketPrices",
          "type": "uint256[]"
        },
        {
          "internalType": "uint256[]",
          "name": "_ticketRanges",
          "type": "uint256[]"
        },
        {
          "internalType": "address[]",
          "name": "_payees",
          "type": "address[]"
        },
        {
          "internalType": "uint256[]",
          "name": "_shares",
          "type": "uint256[]"
        },
        {
          "internalType": "bytes32",
          "name": "_root",
          "type": "bytes32"
        }
      ],
      "name": "createERC721",
      "outputs": [
        {
          "internalType": "address",
          "name": "",
          "type": "address"
        }
      ],
      "stateMutability": "nonpayable",
      "type": "function"
    },
    {
      "inputs": [
        {
          "internalType": "bytes32",
          "name": "role",
          "type": "bytes32"
        }
      ],
      "name": "getRoleAdmin",
      "outputs": [
        {
          "internalType": "bytes32",
          "name": "",
          "type": "bytes32"
        }
      ],
      "stateMutability": "view",
      "type": "function"
    },
    {
      "inputs": [
        {
          "internalType": "bytes32",
          "name": "role",
          "type": "bytes32"
        },
        {
          "internalType": "address",
          "name": "account",
          "type": "address"
        }
      ],
      "name": "grantRole",
      "outputs": [],
      "stateMutability": "nonpayable",
      "type": "function"
    },
    {
      "inputs": [
        {
          "internalType": "bytes32",
          "name": "role",
          "type": "bytes32"
        },
        {
          "internalType": "address",
          "name": "account",
          "type": "address"
        }
      ],
      "name": "hasRole",
      "outputs": [
        {
          "internalType": "bool",
          "name": "",
          "type": "bool"
        }
      ],
      "stateMutability": "view",
      "type": "function"
    },
    {
      "inputs": [
        {
          "internalType": "address",
          "name": "BaseERC721",
          "type": "address"
        }
      ],
      "name": "initialize",
      "outputs": [],
      "stateMutability": "nonpayable",
      "type": "function"
    },
    {
      "inputs": [],
      "name": "owner",
      "outputs": [
        {
          "internalType": "address",
          "name": "",
          "type": "address"
        }
      ],
      "stateMutability": "view",
      "type": "function"
    },
    {
      "inputs": [],
      "name": "renounceOwnership",
      "outputs": [],
      "stateMutability": "nonpayable",
      "type": "function"
    },
    {
      "inputs": [
        {
          "internalType": "bytes32",
          "name": "role",
          "type": "bytes32"
        },
        {
          "internalType": "address",
          "name": "account",
          "type": "address"
        }
      ],
      "name": "renounceRole",
      "outputs": [],
      "stateMutability": "nonpayable",
      "type": "function"
    },
    {
      "inputs": [
        {
          "internalType": "bytes32",
          "name": "role",
          "type": "bytes32"
        },
        {
          "internalType": "address",
          "name": "account",
          "type": "address"
        }
      ],
      "name": "revokeRole",
      "outputs": [],
      "stateMutability": "nonpayable",
      "type": "function"
    },
    {
      "inputs": [
        {
          "internalType": "bytes4",
          "name": "interfaceId",
          "type": "bytes4"
        }
      ],
      "name": "supportsInterface",
      "outputs": [
        {
          "internalType": "bool",
          "name": "",
          "type": "bool"
        }
      ],
      "stateMutability": "view",
      "type": "function"
    },
    {
      "inputs": [
        {
          "internalType": "address",
          "name": "newOwner",
          "type": "address"
        }
      ],
      "name": "transferOwnership",
      "outputs": [],
      "stateMutability": "nonpayable",
      "type": "function"
    },
    {
      "stateMutability": "payable",
      "type": "receive"
    }
  ],
  "bytecode": "0x608060405234801561001057600080fd5b50611666806100206000396000f3fe6080604052600436106100ec5760003560e01c8063715018a61161008a578063c4d66de811610059578063c4d66de814610310578063c7b5139114610330578063d547741f14610350578063f2fde38b1461037057610123565b8063715018a6146102825780638da5cb5b1461029757806391d14854146102b5578063a217fddf146102fb57610123565b80632f2ff15d116100c65780632f2ff15d1461020057806336568abe146102225780633b7d526e146102425780635ea102b01461026257610123565b806301ffc9a7146101555780630e0399161461018a578063248a9ca3146101c257610123565b36610123576040517f687b764e00000000000000000000000000000000000000000000000000000000815260040160405180910390fd5b6040517f687b764e00000000000000000000000000000000000000000000000000000000815260040160405180910390fd5b34801561016157600080fd5b50610175610170366004611031565b610390565b60405190151581526020015b60405180910390f35b34801561019657600080fd5b506101aa6101a5366004611073565b610429565b6040516001600160a01b039091168152602001610181565b3480156101ce57600080fd5b506101f26101dd366004611073565b60009081526097602052604090206001015490565b604051908152602001610181565b34801561020c57600080fd5b5061022061021b3660046110a3565b610453565b005b34801561022e57600080fd5b5061022061023d3660046110a3565b61047d565b34801561024e57600080fd5b506101aa61025d366004611277565b61050e565b34801561026e57600080fd5b5060fb546101aa906001600160a01b031681565b34801561028e57600080fd5b50610220610655565b3480156102a357600080fd5b506033546001600160a01b03166101aa565b3480156102c157600080fd5b506101756102d03660046110a3565b60009182526097602090815260408084206001600160a01b0393909316845291905290205460ff1690565b34801561030757600080fd5b506101f2600081565b34801561031c57600080fd5b5061022061032b36600461139c565b610669565b34801561033c57600080fd5b5061022061034b36600461139c565b6107f1565b34801561035c57600080fd5b5061022061036b3660046110a3565b6108d8565b34801561037c57600080fd5b5061022061038b36600461139c565b6108fd565b60007fffffffff0000000000000000000000000000000000000000000000000000000082167f7965db0b00000000000000000000000000000000000000000000000000000000148061042357507f01ffc9a7000000000000000000000000000000000000000000000000000000007fffffffff000000000000000000000000000000000000000000000000000000008316145b92915050565b60fc818154811061043957600080fd5b6000918252602090912001546001600160a01b0316905081565b60008281526097602052604090206001015461046e8161098d565b6104788383610997565b505050565b6001600160a01b03811633146105005760405162461bcd60e51b815260206004820152602f60248201527f416363657373436f6e74726f6c3a2063616e206f6e6c792072656e6f756e636560448201527f20726f6c657320666f722073656c66000000000000000000000000000000000060648201526084015b60405180910390fd5b61050a8282610a39565b5050565b6000610518610abc565b60fb54600090610530906001600160a01b0316610b15565b6040517f32ab7cb60000000000000000000000000000000000000000000000000000000081529091506001600160a01b038216906332ab7cb690610586908d908d908d908d908d908d908d908d90600401611442565b600060405180830381600087803b1580156105a057600080fd5b505af11580156105b4573d6000803e3d6000fd5b505060fc805460018101825560009182527f371f36870d18f32a11fea0f144b021c8b407bb50f8e0267c711123f454b963c001805473ffffffffffffffffffffffffffffffffffffffff19166001600160a01b0386169081179091556040513394509092507f3bf919a220a0f12ddcaf77fd06ffa4b9c728617774936f0d78b452010319c8249190a39050610649600160c955565b98975050505050505050565b61065d610bb6565b6106676000610c10565b565b600054610100900460ff16158080156106895750600054600160ff909116105b806106a35750303b1580156106a3575060005460ff166001145b6107155760405162461bcd60e51b815260206004820152602e60248201527f496e697469616c697a61626c653a20636f6e747261637420697320616c72656160448201527f647920696e697469616c697a656400000000000000000000000000000000000060648201526084016104f7565b6000805460ff191660011790558015610738576000805461ff0019166101001790555b6001600160a01b038216610778576040517fd92e233d00000000000000000000000000000000000000000000000000000000815260040160405180910390fd5b60fb805473ffffffffffffffffffffffffffffffffffffffff19166001600160a01b0384161790556107a8610c6f565b801561050a576000805461ff0019169055604051600181527f7f26b83ff96e1f2b6a682f133852f6798a09c465da95921460cefb38474024989060200160405180910390a15050565b6107f9610bb6565b6001600160a01b038116610839576040517fd92e233d00000000000000000000000000000000000000000000000000000000815260040160405180910390fd5b60fb546001600160a01b0390811690821603610881576040517f367558c300000000000000000000000000000000000000000000000000000000815260040160405180910390fd5b60fb805473ffffffffffffffffffffffffffffffffffffffff19166001600160a01b0383169081179091556040517fd04f10b610233a1d4a7c6405e91287680343094a50b8ff2ca0759a62fc07a86790600090a250565b6000828152609760205260409020600101546108f38161098d565b6104788383610a39565b610905610bb6565b6001600160a01b0381166109815760405162461bcd60e51b815260206004820152602660248201527f4f776e61626c653a206e6577206f776e657220697320746865207a65726f206160448201527f646472657373000000000000000000000000000000000000000000000000000060648201526084016104f7565b61098a81610c10565b50565b61098a8133610cf4565b60008281526097602090815260408083206001600160a01b038516845290915290205460ff1661050a5760008281526097602090815260408083206001600160a01b03851684529091529020805460ff191660011790556109f53390565b6001600160a01b0316816001600160a01b0316837f2f8788117e7eff1d82e926ec794901d17c78024a50270940304540a733656f0d60405160405180910390a45050565b60008281526097602090815260408083206001600160a01b038516845290915290205460ff161561050a5760008281526097602090815260408083206001600160a01b0385168085529252808320805460ff1916905551339285917ff6391f5c32d9c69d2a47ea670b442974b53935d1edc7fd64eb21e047a839171b9190a45050565b600260c95403610b0e5760405162461bcd60e51b815260206004820152601f60248201527f5265656e7472616e637947756172643a207265656e7472616e742063616c6c0060448201526064016104f7565b600260c955565b6000763d602d80600a3d3981f3363d3d373d3d3d363d730000008260601b60e81c176000526e5af43d82803e903d91602b57fd5bf38260781b17602052603760096000f090506001600160a01b038116610bb15760405162461bcd60e51b815260206004820152601660248201527f455243313136373a20637265617465206661696c65640000000000000000000060448201526064016104f7565b919050565b6033546001600160a01b031633146106675760405162461bcd60e51b815260206004820181905260248201527f4f776e61626c653a2063616c6c6572206973206e6f7420746865206f776e657260448201526064016104f7565b603380546001600160a01b0383811673ffffffffffffffffffffffffffffffffffffffff19831681179093556040519116919082907f8be0079c531659141344cd1fd0a4f28419497f9722a3daafe3b4186f6b6457e090600090a35050565b600054610100900460ff16610cec5760405162461bcd60e51b815260206004820152602b60248201527f496e697469616c697a61626c653a20636f6e7472616374206973206e6f74206960448201527f6e697469616c697a696e6700000000000000000000000000000000000000000060648201526084016104f7565b610667610d69565b60008281526097602090815260408083206001600160a01b038516845290915290205460ff1661050a57610d2781610def565b610d32836020610e01565b604051602001610d43929190611511565b60408051601f198184030181529082905262461bcd60e51b82526104f791600401611592565b600054610100900460ff16610de65760405162461bcd60e51b815260206004820152602b60248201527f496e697469616c697a61626c653a20636f6e7472616374206973206e6f74206960448201527f6e697469616c697a696e6700000000000000000000000000000000000000000060648201526084016104f7565b61066733610c10565b60606104236001600160a01b03831660145b60606000610e108360026115bb565b610e1b9060026115d2565b67ffffffffffffffff811115610e3357610e336110cf565b6040519080825280601f01601f191660200182016040528015610e5d576020820181803683370190505b5090507f300000000000000000000000000000000000000000000000000000000000000081600081518110610e9457610e946115e5565b60200101907effffffffffffffffffffffffffffffffffffffffffffffffffffffffffffff1916908160001a9053507f780000000000000000000000000000000000000000000000000000000000000081600181518110610ef757610ef76115e5565b60200101907effffffffffffffffffffffffffffffffffffffffffffffffffffffffffffff1916908160001a9053506000610f338460026115bb565b610f3e9060016115d2565b90505b6001811115610fdb577f303132333435363738396162636465660000000000000000000000000000000085600f1660108110610f7f57610f7f6115e5565b1a60f81b828281518110610f9557610f956115e5565b60200101907effffffffffffffffffffffffffffffffffffffffffffffffffffffffffffff1916908160001a90535060049490941c93610fd4816115fb565b9050610f41565b50831561102a5760405162461bcd60e51b815260206004820181905260248201527f537472696e67733a20686578206c656e67746820696e73756666696369656e7460448201526064016104f7565b9392505050565b60006020828403121561104357600080fd5b81357fffffffff000000000000000000000000000000000000000000000000000000008116811461102a57600080fd5b60006020828403121561108557600080fd5b5035919050565b80356001600160a01b0381168114610bb157600080fd5b600080604083850312156110b657600080fd5b823591506110c66020840161108c565b90509250929050565b634e487b7160e01b600052604160045260246000fd5b604051601f8201601f1916810167ffffffffffffffff8111828210171561110e5761110e6110cf565b604052919050565b600082601f83011261112757600080fd5b813567ffffffffffffffff811115611141576111416110cf565b6111546020601f19601f840116016110e5565b81815284602083860101111561116957600080fd5b816020850160208301376000918101602001919091529392505050565b600067ffffffffffffffff8211156111a0576111a06110cf565b5060051b60200190565b600082601f8301126111bb57600080fd5b813560206111d06111cb83611186565b6110e5565b82815260059290921b840181019181810190868411156111ef57600080fd5b8286015b8481101561120a57803583529183019183016111f3565b509695505050505050565b600082601f83011261122657600080fd5b813560206112366111cb83611186565b82815260059290921b8401810191818101908684111561125557600080fd5b8286015b8481101561120a5761126a8161108c565b8352918301918301611259565b600080600080600080600080610100898b03121561129457600080fd5b883567ffffffffffffffff808211156112ac57600080fd5b6112b88c838d01611116565b995060208b01359150808211156112ce57600080fd5b6112da8c838d01611116565b985060408b01359150808211156112f057600080fd5b6112fc8c838d01611116565b975060608b013591508082111561131257600080fd5b61131e8c838d016111aa565b965060808b013591508082111561133457600080fd5b6113408c838d016111aa565b955060a08b013591508082111561135657600080fd5b6113628c838d01611215565b945060c08b013591508082111561137857600080fd5b506113858b828c016111aa565b92505060e089013590509295985092959890939650565b6000602082840312156113ae57600080fd5b61102a8261108c565b60005b838110156113d25781810151838201526020016113ba565b50506000910152565b600081518084526113f38160208601602086016113b7565b601f01601f19169290920160200192915050565b600081518084526020808501945080840160005b838110156114375781518752958201959082019060010161141b565b509495945050505050565b60006101008083526114568184018c6113db565b905060208382038185015261146b828c6113db565b9150838203604085015261147f828b6113db565b91508382036060850152611493828a611407565b915083820360808501526114a78289611407565b84810360a0860152875180825282890193509082019060005b818110156114e55784516001600160a01b0316835293830193918301916001016114c0565b505084810360c08601526114f98188611407565b93505050508260e08301529998505050505050505050565b7f416363657373436f6e74726f6c3a206163636f756e74200000000000000000008152600083516115498160178501602088016113b7565b7f206973206d697373696e6720726f6c652000000000000000000000000000000060179184019182015283516115868160288401602088016113b7565b01602801949350505050565b60208152600061102a60208301846113db565b634e487b7160e01b600052601160045260246000fd5b8082028115828204841417610423576104236115a5565b80820180821115610423576104236115a5565b634e487b7160e01b600052603260045260246000fd5b60008161160a5761160a6115a5565b507fffffffffffffffffffffffffffffffffffffffffffffffffffffffffffffffff019056fea2646970667358221220db7a92cd790e63b714cfb0c91caa4619e41158092cd48281dad8876bee34359f64736f6c63430008110033",
  "linkReferences": {},
  "deployedLinkReferences": {}
}