{
  "contractName": "Lending",
  "abi": [
    {
      "inputs": [
        {
          "internalType": "address",
          "name": "",
          "type": "address"
        }
      ],
      "name": "addressToAmt",
      "outputs": [
        {
          "internalType": "uint256",
          "name": "",
          "type": "uint256"
        }
      ],
      "stateMutability": "view",
      "type": "function",
      "constant": true
    },
    {
      "inputs": [
        {
          "internalType": "address",
          "name": "",
          "type": "address"
        }
      ],
      "name": "addressToTime",
      "outputs": [
        {
          "internalType": "uint256",
          "name": "",
          "type": "uint256"
        }
      ],
      "stateMutability": "view",
      "type": "function",
      "constant": true
    },
    {
      "inputs": [
        {
          "internalType": "uint256",
          "name": "_newVal",
          "type": "uint256"
        }
      ],
      "name": "modifyLTV",
      "outputs": [],
      "stateMutability": "nonpayable",
      "type": "function"
    },
    {
      "inputs": [],
      "name": "fetchLoanDetails",
      "outputs": [
        {
          "internalType": "uint256",
          "name": "",
          "type": "uint256"
        },
        {
          "internalType": "uint256",
          "name": "",
          "type": "uint256"
        }
      ],
      "stateMutability": "view",
      "type": "function",
      "constant": true
    }
  ],
  "bytecode": "0x6080604052601460005534801561001557600080fd5b506103be806100256000396000f3fe608060405234801561001057600080fd5b5060043610610069576000357c0100000000000000000000000000000000000000000000000000000000900480633724a4511461006e57806347c447381461008a57806385dc5ff0146100ba578063946fb997146100ea575b600080fd5b6100886004803603810190610083919061021a565b610109565b005b6100a4600480360381019061009f91906102a5565b610113565b6040516100b191906102e1565b60405180910390f35b6100d460048036038101906100cf91906102a5565b61012b565b6040516100e191906102e1565b60405180910390f35b6100f2610143565b6040516101009291906102fc565b60405180910390f35b8060008190555050565b60016020528060005260406000206000915090505481565b60026020528060005260406000206000915090505481565b6000806000600260003373ffffffffffffffffffffffffffffffffffffffff1673ffffffffffffffffffffffffffffffffffffffff16815260200190815260200160002054436101939190610354565b9050600160003373ffffffffffffffffffffffffffffffffffffffff1673ffffffffffffffffffffffffffffffffffffffff168152602001908152602001600020548192509250509091565b600080fd5b6000819050919050565b6101f7816101e4565b811461020257600080fd5b50565b600081359050610214816101ee565b92915050565b6000602082840312156102305761022f6101df565b5b600061023e84828501610205565b91505092915050565b600073ffffffffffffffffffffffffffffffffffffffff82169050919050565b600061027282610247565b9050919050565b61028281610267565b811461028d57600080fd5b50565b60008135905061029f81610279565b92915050565b6000602082840312156102bb576102ba6101df565b5b60006102c984828501610290565b91505092915050565b6102db816101e4565b82525050565b60006020820190506102f660008301846102d2565b92915050565b600060408201905061031160008301856102d2565b61031e60208301846102d2565b9392505050565b7f4e487b7100000000000000000000000000000000000000000000000000000000600052601160045260246000fd5b600061035f826101e4565b915061036a836101e4565b925082820390508181111561038257610381610325565b5b9291505056fea26469706673582212202f31c393bbc0ef1de1e36c1cd8f2bbc41c9d4b74d08fda7814fd1cdb20f4ecd764736f6c63430008110033",
  "immutableReferences": {},
  "source": "// SPDX-License-Identifier: UNLICENSED\r\npragma solidity ^0.8.0;\r\n\r\ncontract Lending {\r\n    // calculating the value of loan on the basis of collateral\r\n    uint LTV = 20;\r\n    mapping(address => uint) public addressToAmt;\r\n    mapping(address => uint) public addressToTime;\r\n\r\n    function modifyLTV(uint _newVal) public {\r\n        LTV = _newVal;\r\n    }\r\n\r\n    // 0.00002(RBTC)*10^8=2000RSAT\r\n    function calculateLoanAmt(\r\n        uint _collateralVal\r\n    ) internal pure returns (uint) {\r\n        uint num = _collateralVal * 20;\r\n        uint denom = 100;\r\n        return num / denom; // It is returning the value in RSAT\r\n    }\r\n\r\n    function requestForLoan(uint _collateralVal) internal returns (uint) {\r\n        uint eligibleAmt = calculateLoanAmt(_collateralVal);\r\n        addressToAmt[msg.sender] = eligibleAmt;\r\n        addressToTime[msg.sender] = block.number;\r\n\r\n        return eligibleAmt;\r\n    }\r\n\r\n    function calculateInterest() internal view returns (uint) {\r\n        uint amt = addressToAmt[msg.sender];\r\n        uint block_difference = block.number - addressToTime[msg.sender];\r\n        uint no_of_days = block_difference / 144;\r\n        uint rate_of_interest = 2739; // 2739 x 10^(-5) , we manage the decimals below\r\n        uint total_interest_non_decimal = amt * no_of_days * rate_of_interest;\r\n        uint total_interest = total_interest_non_decimal / 100000;\r\n        uint total_payable_amount = amt + total_interest;\r\n        return total_payable_amount;\r\n    }\r\n    function fetchLoanDetails() public view returns (uint,uint)\r\n   {\r\n       uint time =  block.number-addressToTime[msg.sender]; \r\n     return ( addressToAmt[msg.sender],time);\r\n   }\r\n    function resetValue() internal {\r\n        addressToAmt[msg.sender] = 0;\r\n        addressToTime[msg.sender] = 0;\r\n    }\r\n}\r\n",
  "sourcePath": "C:\\Users\\soumy\\Desktop\\rootstock-testing\\Dapp-hackathon\\OrdinalDAO--rootstock\\contracts\\Lending.sol",
  "compiler": {
    "name": "solc",
    "version": "0.8.17+commit.8df45f5f.Emscripten.clang"
  },
  "schemaVersion": "3.4.14",
  "updatedAt": "2023-07-09T04:28:00.770Z",
  "networkType": "ethereum",
  "devdoc": {
    "kind": "dev",
    "methods": {},
    "version": 1
  },
  "userdoc": {
    "kind": "user",
    "methods": {},
    "version": 1
  }
}