{
  "contractName": "Lending",
  "abi": [
    {
      "inputs": [
        {
          "internalType": "address",
          "name": "",
          "type": "address"
        }
      ],
      "name": "addressToAmt",
      "outputs": [
        {
          "internalType": "uint256",
          "name": "",
          "type": "uint256"
        }
      ],
      "stateMutability": "view",
      "type": "function",
      "constant": true
    },
    {
      "inputs": [
        {
          "internalType": "address",
          "name": "",
          "type": "address"
        }
      ],
      "name": "addressToTime",
      "outputs": [
        {
          "internalType": "uint256",
          "name": "",
          "type": "uint256"
        }
      ],
      "stateMutability": "view",
      "type": "function",
      "constant": true
    },
    {
      "inputs": [
        {
          "internalType": "uint256",
          "name": "_newVal",
          "type": "uint256"
        }
      ],
      "name": "modifyLTV",
      "outputs": [],
      "stateMutability": "nonpayable",
      "type": "function"
    },
    {
      "inputs": [
        {
          "internalType": "uint256",
          "name": "_collateralVal",
          "type": "uint256"
        }
      ],
      "name": "calculateLoanAmt",
      "outputs": [
        {
          "internalType": "uint256",
          "name": "",
          "type": "uint256"
        }
      ],
      "stateMutability": "pure",
      "type": "function",
      "constant": true
    },
    {
      "inputs": [
        {
          "internalType": "uint256",
          "name": "_collateralVal",
          "type": "uint256"
        }
      ],
      "name": "requestForLoan",
      "outputs": [],
      "stateMutability": "nonpayable",
      "type": "function"
    },
    {
      "inputs": [],
      "name": "calculateTotalPayable",
      "outputs": [
        {
          "internalType": "uint256",
          "name": "",
          "type": "uint256"
        }
      ],
      "stateMutability": "view",
      "type": "function",
      "constant": true
    },
    {
      "inputs": [],
      "name": "calculateInterest",
      "outputs": [
        {
          "internalType": "uint256",
          "name": "",
          "type": "uint256"
        }
      ],
      "stateMutability": "view",
      "type": "function",
      "constant": true
    },
    {
      "inputs": [],
      "name": "fetchLoanDetails",
      "outputs": [
        {
          "internalType": "uint256",
          "name": "",
          "type": "uint256"
        }
      ],
      "stateMutability": "view",
      "type": "function",
      "constant": true
    }
  ],
  "bytecode": "0x6080604052601460005534801561001557600080fd5b506107dd806100256000396000f3fe608060405234801561001057600080fd5b50600436106100a5576000357c01000000000000000000000000000000000000000000000000000000009004806347c447381161007857806347c447381461013057806385dc5ff014610160578063946fb99714610190578063eb0c4955146101ae576100a5565b80631667fea4146100aa578063310b5514146100c65780633724a451146100f65780633759e54214610112575b600080fd5b6100c460048036038101906100bf919061058c565b6101cc565b005b6100e060048036038101906100db919061058c565b610265565b6040516100ed91906105c8565b60405180910390f35b610110600480360381019061010b919061058c565b610292565b005b61011a61029c565b60405161012791906105c8565b60405180910390f35b61014a60048036038101906101459190610641565b610393565b60405161015791906105c8565b60405180910390f35b61017a60048036038101906101759190610641565b6103ab565b60405161018791906105c8565b60405180910390f35b6101986103c3565b6040516101a591906105c8565b60405180910390f35b6101b661046b565b6040516101c391906105c8565b60405180910390f35b60006101d782610265565b905080600160003373ffffffffffffffffffffffffffffffffffffffff1673ffffffffffffffffffffffffffffffffffffffff1681526020019081526020016000208190555043600260003373ffffffffffffffffffffffffffffffffffffffff1673ffffffffffffffffffffffffffffffffffffffff168152602001908152602001600020819055505050565b600080601483610275919061069d565b90506000606490508082610289919061070e565b92505050919050565b8060008190555050565b600080600160003373ffffffffffffffffffffffffffffffffffffffff1673ffffffffffffffffffffffffffffffffffffffff1681526020019081526020016000205490506000600260003373ffffffffffffffffffffffffffffffffffffffff1673ffffffffffffffffffffffffffffffffffffffff168152602001908152602001600020544361032e919061073f565b9050600060908261033f919061070e565b90506000610ab390506000818386610357919061069d565b610361919061069d565b90506000620186a082610374919061070e565b9050600081876103849190610773565b90508097505050505050505090565b60016020528060005260406000206000915090505481565b60026020528060005260406000206000915090505481565b6000806000600260003373ffffffffffffffffffffffffffffffffffffffff1673ffffffffffffffffffffffffffffffffffffffff168152602001908152602001600020541461045f57600260003373ffffffffffffffffffffffffffffffffffffffff1673ffffffffffffffffffffffffffffffffffffffff1681526020019081526020016000205443610458919061073f565b9050610464565b600090505b8091505090565b600080600160003373ffffffffffffffffffffffffffffffffffffffff1673ffffffffffffffffffffffffffffffffffffffff1681526020019081526020016000205490506000600260003373ffffffffffffffffffffffffffffffffffffffff1673ffffffffffffffffffffffffffffffffffffffff16815260200190815260200160002054436104fd919061073f565b9050600060908261050e919061070e565b90506000610ab390506000818386610526919061069d565b610530919061069d565b90506000620186a082610543919061070e565b905080965050505050505090565b600080fd5b6000819050919050565b61056981610556565b811461057457600080fd5b50565b60008135905061058681610560565b92915050565b6000602082840312156105a2576105a1610551565b5b60006105b084828501610577565b91505092915050565b6105c281610556565b82525050565b60006020820190506105dd60008301846105b9565b92915050565b600073ffffffffffffffffffffffffffffffffffffffff82169050919050565b600061060e826105e3565b9050919050565b61061e81610603565b811461062957600080fd5b50565b60008135905061063b81610615565b92915050565b60006020828403121561065757610656610551565b5b60006106658482850161062c565b91505092915050565b7f4e487b7100000000000000000000000000000000000000000000000000000000600052601160045260246000fd5b60006106a882610556565b91506106b383610556565b92508282026106c181610556565b915082820484148315176106d8576106d761066e565b5b5092915050565b7f4e487b7100000000000000000000000000000000000000000000000000000000600052601260045260246000fd5b600061071982610556565b915061072483610556565b925082610734576107336106df565b5b828204905092915050565b600061074a82610556565b915061075583610556565b925082820390508181111561076d5761076c61066e565b5b92915050565b600061077e82610556565b915061078983610556565b92508282019050808211156107a1576107a061066e565b5b9291505056fea2646970667358221220ba92d59b3564b464fabf9318140127108be14cc8ee09f6eb8d2051b8d53757e364736f6c63430008110033",
  "immutableReferences": {},
  "source": "// SPDX-License-Identifier: UNLICENSED\r\npragma solidity ^0.8.0;\r\ncontract Lending{\r\n// calculating the value of loan on the basis of collateral \r\n uint  LTV = 20;\r\n mapping(address=>uint) public addressToAmt;\r\n mapping(address=>uint) public addressToTime;\r\n \r\n function modifyLTV(uint _newVal) public {\r\n     LTV = _newVal;\r\n }\r\n // 0.00002(RBTC)*10^8=2000RSAT\r\nfunction calculateLoanAmt(uint _collateralVal) public pure returns(uint) {\r\n uint num = _collateralVal*20;\r\n uint denom = 100;\r\n return num/denom; // It is returning the value in RSAT\r\n} \r\n function requestForLoan(uint _collateralVal) public   {\r\n    uint loanAmt = calculateLoanAmt(_collateralVal);\r\n    addressToAmt[msg.sender]= loanAmt;\r\n    addressToTime[msg.sender]=block.number;\r\n }\r\n\r\n   function calculateTotalPayable() public view returns (uint) {\r\n        uint amt = addressToAmt[msg.sender];\r\n        uint block_difference = block.number - addressToTime[msg.sender];\r\n        uint no_of_days = block_difference / 144;\r\n        uint rate_of_interest = 2739; // 2739 x 10^(-5) , we manage the decimals below\r\n        uint total_interest_non_decimal = amt * no_of_days * rate_of_interest;\r\n        uint total_interest = total_interest_non_decimal / 100000;\r\n        uint total_payable_amount = amt + total_interest;\r\n        return total_payable_amount;\r\n    }\r\n   function calculateInterest() public view returns (uint) {\r\n        uint amt = addressToAmt[msg.sender];\r\n        uint block_difference = block.number - addressToTime[msg.sender];\r\n        uint no_of_days = block_difference / 144;\r\n        uint rate_of_interest = 2739; // 2739 x 10^(-5) , we manage the decimals below\r\n        uint total_interest_non_decimal = amt * no_of_days * rate_of_interest;\r\n        uint total_interest = total_interest_non_decimal / 100000;\r\n        return total_interest;\r\n    }\r\n    function fetchLoanDetails() public view returns (uint)\r\n   {    uint time;\r\n           if(addressToTime[msg.sender]!=0){\r\n      time =  block.number-addressToTime[msg.sender]; \r\n   }\r\n   else{\r\n    time = 0;\r\n   }\r\n       \r\n     return (time);\r\n   }\r\n function resetValue() internal {\r\n     addressToAmt[msg.sender] =0;\r\n     addressToTime[msg.sender] =0;\r\n\r\n }\r\n}",
  "sourcePath": "C:\\Users\\soumy\\Desktop\\rootstock-testing\\Dapp-hackathon\\OrdinalDAO--rootstock\\contracts\\Lending.sol",
  "compiler": {
    "name": "solc",
    "version": "0.8.17+commit.8df45f5f.Emscripten.clang"
  },
  "schemaVersion": "3.4.14",
  "updatedAt": "2023-07-18T14:03:50.590Z",
  "networkType": "ethereum",
  "devdoc": {
    "kind": "dev",
    "methods": {},
    "version": 1
  },
  "userdoc": {
    "kind": "user",
    "methods": {},
    "version": 1
  }
}