{
  "contractName": "Treasury",
  "abi": [
    {
      "anonymous": false,
      "inputs": [
        {
          "indexed": true,
          "internalType": "uint256",
          "name": "amount",
          "type": "uint256"
        }
      ],
      "name": "receiveFundEvent",
      "type": "event"
    },
    {
      "anonymous": false,
      "inputs": [
        {
          "indexed": true,
          "internalType": "address",
          "name": "borrower",
          "type": "address"
        },
        {
          "indexed": true,
          "internalType": "uint256",
          "name": "amount",
          "type": "uint256"
        }
      ],
      "name": "withdrawEvent",
      "type": "event"
    },
    {
      "inputs": [
        {
          "internalType": "address",
          "name": "",
          "type": "address"
        }
      ],
      "name": "addressToAmt",
      "outputs": [
        {
          "internalType": "uint256",
          "name": "",
          "type": "uint256"
        }
      ],
      "stateMutability": "view",
      "type": "function",
      "constant": true
    },
    {
      "inputs": [
        {
          "internalType": "address",
          "name": "",
          "type": "address"
        }
      ],
      "name": "addressToTime",
      "outputs": [
        {
          "internalType": "uint256",
          "name": "",
          "type": "uint256"
        }
      ],
      "stateMutability": "view",
      "type": "function",
      "constant": true
    },
    {
      "inputs": [],
      "name": "calculateInterest",
      "outputs": [
        {
          "internalType": "uint256",
          "name": "",
          "type": "uint256"
        }
      ],
      "stateMutability": "view",
      "type": "function",
      "constant": true
    },
    {
      "inputs": [
        {
          "internalType": "uint256",
          "name": "_collateralVal",
          "type": "uint256"
        }
      ],
      "name": "calculateLoanAmt",
      "outputs": [
        {
          "internalType": "uint256",
          "name": "",
          "type": "uint256"
        }
      ],
      "stateMutability": "pure",
      "type": "function",
      "constant": true
    },
    {
      "inputs": [],
      "name": "calculateTotalPayable",
      "outputs": [
        {
          "internalType": "uint256",
          "name": "",
          "type": "uint256"
        }
      ],
      "stateMutability": "view",
      "type": "function",
      "constant": true
    },
    {
      "inputs": [],
      "name": "eligibleAmt",
      "outputs": [
        {
          "internalType": "uint256",
          "name": "",
          "type": "uint256"
        }
      ],
      "stateMutability": "view",
      "type": "function",
      "constant": true
    },
    {
      "inputs": [],
      "name": "fetchLoanDetails",
      "outputs": [
        {
          "internalType": "uint256",
          "name": "",
          "type": "uint256"
        }
      ],
      "stateMutability": "view",
      "type": "function",
      "constant": true
    },
    {
      "inputs": [
        {
          "internalType": "uint256",
          "name": "_newVal",
          "type": "uint256"
        }
      ],
      "name": "modifyLTV",
      "outputs": [],
      "stateMutability": "nonpayable",
      "type": "function"
    },
    {
      "inputs": [
        {
          "internalType": "uint256",
          "name": "_collateralVal",
          "type": "uint256"
        }
      ],
      "name": "requestForLoan",
      "outputs": [],
      "stateMutability": "nonpayable",
      "type": "function"
    },
    {
      "inputs": [],
      "name": "receiveFund",
      "outputs": [],
      "stateMutability": "payable",
      "type": "function",
      "payable": true
    },
    {
      "inputs": [
        {
          "internalType": "uint256",
          "name": "_collateralVal",
          "type": "uint256"
        }
      ],
      "name": "withdraw",
      "outputs": [],
      "stateMutability": "payable",
      "type": "function",
      "payable": true
    },
    {
      "inputs": [],
      "name": "fakeFund",
      "outputs": [],
      "stateMutability": "payable",
      "type": "function",
      "payable": true
    },
    {
      "inputs": [],
      "name": "checkPaybleAmt",
      "outputs": [
        {
          "internalType": "uint256",
          "name": "",
          "type": "uint256"
        }
      ],
      "stateMutability": "view",
      "type": "function",
      "constant": true
    },
    {
      "inputs": [],
      "name": "getContractBalance",
      "outputs": [
        {
          "internalType": "uint256",
          "name": "",
          "type": "uint256"
        }
      ],
      "stateMutability": "view",
      "type": "function",
      "constant": true
    }
  ],
  "bytecode": "0x6080604052601460005534801561001557600080fd5b50610baf806100256000396000f3fe6080604052600436106100fa576000357c01000000000000000000000000000000000000000000000000000000009004806347c447381161009c578063946fb99711610076578063946fb997146102af578063b9977dc4146102da578063eb0c4955146102e4578063f06b7cba1461030f576100fa565b806347c447381461020a5780636f9fb98a1461024757806385dc5ff014610272576100fa565b8063310b5514116100d8578063310b55141461016f5780633724a451146101ac5780633759e542146101d55780634105e7a414610200576100fa565b80630b0b298a146100ff5780631667fea41461012a5780632e1a7d4d14610153575b600080fd5b34801561010b57600080fd5b5061011461033a565b60405161012191906108bf565b60405180910390f35b34801561013657600080fd5b50610151600480360381019061014c919061090b565b610340565b005b61016d6004803603810190610168919061090b565b6103d9565b005b34801561017b57600080fd5b506101966004803603810190610191919061090b565b610478565b6040516101a391906108bf565b60405180910390f35b3480156101b857600080fd5b506101d360048036038101906101ce919061090b565b6104a5565b005b3480156101e157600080fd5b506101ea6104af565b6040516101f791906108bf565b60405180910390f35b6102086105a6565b005b34801561021657600080fd5b50610231600480360381019061022c9190610996565b6105a8565b60405161023e91906108bf565b60405180910390f35b34801561025357600080fd5b5061025c6105c0565b60405161026991906108bf565b60405180910390f35b34801561027e57600080fd5b5061029960048036038101906102949190610996565b6105df565b6040516102a691906108bf565b60405180910390f35b3480156102bb57600080fd5b506102c46105f7565b6040516102d191906108bf565b60405180910390f35b6102e261069f565b005b3480156102f057600080fd5b506102f9610725565b60405161030691906108bf565b60405180910390f35b34801561031b57600080fd5b5061032461080b565b60405161033191906108bf565b60405180910390f35b60045481565b600061034b82610478565b905080600160003373ffffffffffffffffffffffffffffffffffffffff1673ffffffffffffffffffffffffffffffffffffffff1681526020019081526020016000208190555043600260003373ffffffffffffffffffffffffffffffffffffffff1673ffffffffffffffffffffffffffffffffffffffff168152602001908152602001600020819055505050565b6103e281610478565b6004819055503373ffffffffffffffffffffffffffffffffffffffff166108fc829081150290604051600060405180830381858888f1935050505015801561042e573d6000803e3d6000fd5b506004543373ffffffffffffffffffffffffffffffffffffffff167f87d5f4772963d1f9b76047158b4ae97c420a1b3bff2a746c828beffd9e7c3e2660405160405180910390a350565b60008060148361048891906109f2565b9050600060649050808261049c9190610a63565b92505050919050565b8060008190555050565b600080600160003373ffffffffffffffffffffffffffffffffffffffff1673ffffffffffffffffffffffffffffffffffffffff1681526020019081526020016000205490506000600260003373ffffffffffffffffffffffffffffffffffffffff1673ffffffffffffffffffffffffffffffffffffffff16815260200190815260200160002054436105419190610a94565b905060006090826105529190610a63565b90506000610ab39050600081838661056a91906109f2565b61057491906109f2565b90506000620186a0826105879190610a63565b9050600081876105979190610ac8565b90508097505050505050505090565b565b60016020528060005260406000206000915090505481565b60003073ffffffffffffffffffffffffffffffffffffffff1631905090565b60026020528060005260406000206000915090505481565b6000806000600260003373ffffffffffffffffffffffffffffffffffffffff1673ffffffffffffffffffffffffffffffffffffffff168152602001908152602001600020541461069357600260003373ffffffffffffffffffffffffffffffffffffffff1673ffffffffffffffffffffffffffffffffffffffff168152602001908152602001600020544361068c9190610a94565b9050610698565b600090505b8091505090565b60006106a9610725565b90508034146106ed576040517f08c379a00000000000000000000000000000000000000000000000000000000081526004016106e490610b59565b60405180910390fd5b6106f561081a565b347f726c096d1a84e65797b0e1c2d426df226decb94c417e497716b016206153fb6860405160405180910390a250565b600080600160003373ffffffffffffffffffffffffffffffffffffffff1673ffffffffffffffffffffffffffffffffffffffff1681526020019081526020016000205490506000600260003373ffffffffffffffffffffffffffffffffffffffff1673ffffffffffffffffffffffffffffffffffffffff16815260200190815260200160002054436107b79190610a94565b905060006090826107c89190610a63565b90506000610ab3905060008183866107e091906109f2565b6107ea91906109f2565b90506000620186a0826107fd9190610a63565b905080965050505050505090565b6000610815610725565b905090565b6000600160003373ffffffffffffffffffffffffffffffffffffffff1673ffffffffffffffffffffffffffffffffffffffff168152602001908152602001600020819055506000600260003373ffffffffffffffffffffffffffffffffffffffff1673ffffffffffffffffffffffffffffffffffffffff16815260200190815260200160002081905550565b6000819050919050565b6108b9816108a6565b82525050565b60006020820190506108d460008301846108b0565b92915050565b600080fd5b6108e8816108a6565b81146108f357600080fd5b50565b600081359050610905816108df565b92915050565b600060208284031215610921576109206108da565b5b600061092f848285016108f6565b91505092915050565b600073ffffffffffffffffffffffffffffffffffffffff82169050919050565b600061096382610938565b9050919050565b61097381610958565b811461097e57600080fd5b50565b6000813590506109908161096a565b92915050565b6000602082840312156109ac576109ab6108da565b5b60006109ba84828501610981565b91505092915050565b7f4e487b7100000000000000000000000000000000000000000000000000000000600052601160045260246000fd5b60006109fd826108a6565b9150610a08836108a6565b9250828202610a16816108a6565b91508282048414831517610a2d57610a2c6109c3565b5b5092915050565b7f4e487b7100000000000000000000000000000000000000000000000000000000600052601260045260246000fd5b6000610a6e826108a6565b9150610a79836108a6565b925082610a8957610a88610a34565b5b828204905092915050565b6000610a9f826108a6565b9150610aaa836108a6565b9250828203905081811115610ac257610ac16109c3565b5b92915050565b6000610ad3826108a6565b9150610ade836108a6565b9250828201905080821115610af657610af56109c3565b5b92915050565b600082825260208201905092915050565b7f52657061792054686520636f727265637420416d6f756e740000000000000000600082015250565b6000610b43601883610afc565b9150610b4e82610b0d565b602082019050919050565b60006020820190508181036000830152610b7281610b36565b905091905056fea26469706673582212206011c4f63708f35403698b8c5bd8bbafaab17c265582c4b88573cfd9a041c2be64736f6c63430008110033",
  "immutableReferences": {},
  "source": "// SPDX-License-Identifier: UNLICENSED\r\npragma solidity ^0.8.0;\r\n// import \"@openzeppelin/contracts/access/AccessControl.sol\";\r\nimport \"./Lending.sol\";\r\ncontract Treasury is Lending{\r\n\r\n \r\n   bool internal checkEligibility;\r\n  \r\n    uint public eligibleAmt;\r\n   event receiveFundEvent(\r\n     uint  indexed  amount \r\n   );\r\n   event withdrawEvent(\r\n       address  indexed borrower,\r\n       uint indexed amount\r\n   );\r\n\r\n   function receiveFund() payable public{\r\n    uint amt = super.calculateInterest();\r\n    require(msg.value==amt,\"Repay The correct Amount\");\r\n    super.resetValue();\r\n    emit receiveFundEvent(msg.value);\r\n   }\r\n\r\n   function withdraw (uint  _collateralVal) public payable{\r\n     \r\n    eligibleAmt = super.calculateLoanAmt( _collateralVal);\r\n    payable(msg.sender).transfer( _collateralVal);\r\n    emit withdrawEvent(msg.sender,eligibleAmt);\r\n   }\r\n   function fakeFund() public payable {}\r\n  function checkPaybleAmt() public view returns(uint) {\r\n    return super.calculateInterest();\r\n  }\r\n  function getContractBalance() public view returns(uint)\r\n  {\r\n    return address(this).balance;\r\n  }\r\n   \r\n}",
  "sourcePath": "C:\\Users\\soumy\\Desktop\\rootstock-testing\\Dapp-hackathon\\OrdinalDAO--rootstock\\contracts\\Treasury.sol",
  "compiler": {
    "name": "solc",
    "version": "0.8.17+commit.8df45f5f.Emscripten.clang"
  },
  "schemaVersion": "3.4.14",
  "updatedAt": "2023-07-18T14:03:50.587Z",
  "networkType": "ethereum",
  "devdoc": {
    "kind": "dev",
    "methods": {},
    "version": 1
  },
  "userdoc": {
    "kind": "user",
    "methods": {},
    "version": 1
  }
}