{
  "contractName": "Treasury",
  "abi": [
    {
      "anonymous": false,
      "inputs": [
        {
          "indexed": true,
          "internalType": "uint256",
          "name": "amount",
          "type": "uint256"
        }
      ],
      "name": "receiveFundEvent",
      "type": "event"
    },
    {
      "anonymous": false,
      "inputs": [
        {
          "indexed": true,
          "internalType": "address",
          "name": "borrower",
          "type": "address"
        },
        {
          "indexed": true,
          "internalType": "uint256",
          "name": "amount",
          "type": "uint256"
        }
      ],
      "name": "withdrawEvent",
      "type": "event"
    },
    {
      "inputs": [
        {
          "internalType": "address",
          "name": "",
          "type": "address"
        }
      ],
      "name": "addressToAmt",
      "outputs": [
        {
          "internalType": "uint256",
          "name": "",
          "type": "uint256"
        }
      ],
      "stateMutability": "view",
      "type": "function",
      "constant": true
    },
    {
      "inputs": [
        {
          "internalType": "address",
          "name": "",
          "type": "address"
        }
      ],
      "name": "addressToTime",
      "outputs": [
        {
          "internalType": "uint256",
          "name": "",
          "type": "uint256"
        }
      ],
      "stateMutability": "view",
      "type": "function",
      "constant": true
    },
    {
      "inputs": [],
      "name": "eligibleAmt",
      "outputs": [
        {
          "internalType": "uint256",
          "name": "",
          "type": "uint256"
        }
      ],
      "stateMutability": "view",
      "type": "function",
      "constant": true
    },
    {
      "inputs": [],
      "name": "fetchLoanDetails",
      "outputs": [
        {
          "internalType": "uint256",
          "name": "",
          "type": "uint256"
        },
        {
          "internalType": "uint256",
          "name": "",
          "type": "uint256"
        }
      ],
      "stateMutability": "view",
      "type": "function",
      "constant": true
    },
    {
      "inputs": [
        {
          "internalType": "uint256",
          "name": "_newVal",
          "type": "uint256"
        }
      ],
      "name": "modifyLTV",
      "outputs": [],
      "stateMutability": "nonpayable",
      "type": "function"
    },
    {
      "inputs": [],
      "name": "receiveFund",
      "outputs": [],
      "stateMutability": "payable",
      "type": "function",
      "payable": true
    },
    {
      "inputs": [
        {
          "internalType": "uint256",
          "name": "_collateralVal",
          "type": "uint256"
        }
      ],
      "name": "withdraw",
      "outputs": [],
      "stateMutability": "payable",
      "type": "function",
      "payable": true
    },
    {
      "inputs": [],
      "name": "fakeFund",
      "outputs": [],
      "stateMutability": "payable",
      "type": "function",
      "payable": true
    },
    {
      "inputs": [],
      "name": "checkPaybleAmt",
      "outputs": [
        {
          "internalType": "uint256",
          "name": "",
          "type": "uint256"
        }
      ],
      "stateMutability": "view",
      "type": "function",
      "constant": true
    },
    {
      "inputs": [],
      "name": "getContractBalance",
      "outputs": [
        {
          "internalType": "uint256",
          "name": "",
          "type": "uint256"
        }
      ],
      "stateMutability": "view",
      "type": "function",
      "constant": true
    }
  ],
  "bytecode": "0x6080604052601460005534801561001557600080fd5b506109e7806100256000396000f3fe6080604052600436106100ae576000357c0100000000000000000000000000000000000000000000000000000000900480636f9fb98a116100765780636f9fb98a1461016a57806385dc5ff014610195578063946fb997146101d2578063b9977dc4146101fe578063f06b7cba14610208576100ae565b80630b0b298a146100b35780632e1a7d4d146100de5780633724a451146100fa5780634105e7a41461012357806347c447381461012d575b600080fd5b3480156100bf57600080fd5b506100c8610233565b6040516100d591906106ce565b60405180910390f35b6100f860048036038101906100f3919061071a565b610239565b005b34801561010657600080fd5b50610121600480360381019061011c919061071a565b6102da565b005b61012b6102e4565b005b34801561013957600080fd5b50610154600480360381019061014f91906107a5565b6102e6565b60405161016191906106ce565b60405180910390f35b34801561017657600080fd5b5061017f6102fe565b60405161018c91906106ce565b60405180910390f35b3480156101a157600080fd5b506101bc60048036038101906101b791906107a5565b61031d565b6040516101c991906106ce565b60405180910390f35b3480156101de57600080fd5b506101e7610335565b6040516101f59291906107d2565b60405180910390f35b6102066103d1565b005b34801561021457600080fd5b5061021d610457565b60405161022a91906106ce565b60405180910390f35b60045481565b61024281610466565b6004819055503373ffffffffffffffffffffffffffffffffffffffff166108fc6004549081150290604051600060405180830381858888f19350505050158015610290573d6000803e3d6000fd5b506004543373ffffffffffffffffffffffffffffffffffffffff167f87d5f4772963d1f9b76047158b4ae97c420a1b3bff2a746c828beffd9e7c3e2660405160405180910390a350565b8060008190555050565b565b60016020528060005260406000206000915090505481565b60003073ffffffffffffffffffffffffffffffffffffffff1631905090565b60026020528060005260406000206000915090505481565b6000806000600260003373ffffffffffffffffffffffffffffffffffffffff1673ffffffffffffffffffffffffffffffffffffffff1681526020019081526020016000205443610385919061082a565b9050600160003373ffffffffffffffffffffffffffffffffffffffff1673ffffffffffffffffffffffffffffffffffffffff168152602001908152602001600020548192509250509091565b60006103db610505565b905080341461041f576040517f08c379a0000000000000000000000000000000000000000000000000000000008152600401610416906108bb565b60405180910390fd5b6104276105fc565b347f726c096d1a84e65797b0e1c2d426df226decb94c417e497716b016206153fb6860405160405180910390a250565b6000610461610505565b905090565b60008061047283610688565b905080600160003373ffffffffffffffffffffffffffffffffffffffff1673ffffffffffffffffffffffffffffffffffffffff1681526020019081526020016000208190555043600260003373ffffffffffffffffffffffffffffffffffffffff1673ffffffffffffffffffffffffffffffffffffffff1681526020019081526020016000208190555080915050919050565b600080600160003373ffffffffffffffffffffffffffffffffffffffff1673ffffffffffffffffffffffffffffffffffffffff1681526020019081526020016000205490506000600260003373ffffffffffffffffffffffffffffffffffffffff1673ffffffffffffffffffffffffffffffffffffffff1681526020019081526020016000205443610597919061082a565b905060006090826105a8919061090a565b90506000610ab3905060008183866105c0919061093b565b6105ca919061093b565b90506000620186a0826105dd919061090a565b9050600081876105ed919061097d565b90508097505050505050505090565b6000600160003373ffffffffffffffffffffffffffffffffffffffff1673ffffffffffffffffffffffffffffffffffffffff168152602001908152602001600020819055506000600260003373ffffffffffffffffffffffffffffffffffffffff1673ffffffffffffffffffffffffffffffffffffffff16815260200190815260200160002081905550565b600080601483610698919061093b565b905060006064905080826106ac919061090a565b92505050919050565b6000819050919050565b6106c8816106b5565b82525050565b60006020820190506106e360008301846106bf565b92915050565b600080fd5b6106f7816106b5565b811461070257600080fd5b50565b600081359050610714816106ee565b92915050565b6000602082840312156107305761072f6106e9565b5b600061073e84828501610705565b91505092915050565b600073ffffffffffffffffffffffffffffffffffffffff82169050919050565b600061077282610747565b9050919050565b61078281610767565b811461078d57600080fd5b50565b60008135905061079f81610779565b92915050565b6000602082840312156107bb576107ba6106e9565b5b60006107c984828501610790565b91505092915050565b60006040820190506107e760008301856106bf565b6107f460208301846106bf565b9392505050565b7f4e487b7100000000000000000000000000000000000000000000000000000000600052601160045260246000fd5b6000610835826106b5565b9150610840836106b5565b9250828203905081811115610858576108576107fb565b5b92915050565b600082825260208201905092915050565b7f52657061792054686520636f727265637420416d6f756e740000000000000000600082015250565b60006108a560188361085e565b91506108b08261086f565b602082019050919050565b600060208201905081810360008301526108d481610898565b9050919050565b7f4e487b7100000000000000000000000000000000000000000000000000000000600052601260045260246000fd5b6000610915826106b5565b9150610920836106b5565b9250826109305761092f6108db565b5b828204905092915050565b6000610946826106b5565b9150610951836106b5565b925082820261095f816106b5565b91508282048414831517610976576109756107fb565b5b5092915050565b6000610988826106b5565b9150610993836106b5565b92508282019050808211156109ab576109aa6107fb565b5b9291505056fea26469706673582212203504da38c98a00a046b4c63c1cdbd2df672ea221103667462fecbd39fd73371064736f6c63430008110033",
  "immutableReferences": {},
  "source": "// SPDX-License-Identifier: UNLICENSED\r\npragma solidity ^0.8.0;\r\n// import \"@openzeppelin/contracts/access/AccessControl.sol\";\r\nimport \"./Lending.sol\";\r\n\r\ncontract Treasury is Lending {\r\n    bool internal checkEligibility;\r\n\r\n    uint public eligibleAmt;\r\n    event receiveFundEvent(uint indexed amount);\r\n    event withdrawEvent(address indexed borrower, uint indexed amount);\r\n\r\n    function receiveFund() public payable {\r\n        uint amt = super.calculateInterest();\r\n        require(msg.value == amt, \"Repay The correct Amount\");\r\n        super.resetValue();\r\n        emit receiveFundEvent(msg.value);\r\n    }\r\n\r\n    function withdraw(uint _collateralVal) public payable {\r\n        eligibleAmt = super.requestForLoan(_collateralVal);\r\n        payable(msg.sender).transfer(eligibleAmt);\r\n        emit withdrawEvent(msg.sender, eligibleAmt);\r\n    }\r\n\r\n    function fakeFund() public payable {}\r\n\r\n    function checkPaybleAmt() public view returns (uint) {\r\n        return super.calculateInterest();\r\n    }\r\n\r\n    function getContractBalance() public view returns (uint) {\r\n        return address(this).balance;\r\n    }\r\n}\r\n",
  "sourcePath": "C:\\Users\\soumy\\Desktop\\rootstock-testing\\Dapp-hackathon\\OrdinalDAO--rootstock\\contracts\\Treasury.sol",
  "compiler": {
    "name": "solc",
    "version": "0.8.17+commit.8df45f5f.Emscripten.clang"
  },
  "schemaVersion": "3.4.14",
  "updatedAt": "2023-07-09T04:28:00.764Z",
  "networkType": "ethereum",
  "devdoc": {
    "kind": "dev",
    "methods": {},
    "version": 1
  },
  "userdoc": {
    "kind": "user",
    "methods": {},
    "version": 1
  }
}